:100000000C94E4020C942B030C942B030C942B0300
:100010000C942B030C942B030C942B030C942B03A8
:100020000C942B030C942B030C94861F0C945A20D5
:100030000C94BC1A0C942B030C942B030C942B03E0
:100040000C942B030C942B030C942B030C942B0378
:100050000C942B030C94071B0C942B030C942B0374
:100060000C942B030C942B030C942B030C942B0358
:100070000C942B030C942B030C942B030C942B0348
:100080000C942B030C942B030C942B030C942B0338
:100090000C942B030C942B030C942B030C942B0328
:1000A0000C942B030C942B030C942B0329001E009F
:1000B0001F0020002100220023002400250026002C
:1000C00027002D002E0000002A002B000000140045
:1000D0001A000800150017001C0018000C00120080
:1000E00013002F003000310039000000040016001A
:1000F000070009000A000B000D000E000F0033007E
:100100003400280000000000E1001D001B00060074
:1001100019000500110010003600370038004A00B1
:1001200052004D00E000E3000000E200000000008B
:100130002C0000000000000002510151500051004D
:100140004F0035003A003B003C003D003E003F00C0
:1001500040004100420043004400450000004C00C4
:10016000000000000000000000000000000000008F
:100170000000490000004600470048000000000061
:10018000000000000000000000000000000000006F
:10019000000000000000000000000000000000005F
:1001A000000000000000000000000000000000004F
:1001B000000000004B0000004E00000000000000A6
:1001C000000000000000000000000000000000002F
:1001D00000000000000000000000C25CCD5CCE5CAE
:1001E000D45CD05CD15C00000000C65CC55CCA5C1D
:1001F000C95C0000000000000000000000000000DA
:1002000000000000000000000000000000000000EE
:1002100000000000000000000000000000000000DE
:1002200000000000000000000000000000000000CE
:1002300000000000000000000000000000000000BE
:1002400000000000000000000000000000000000AE
:10025000000000000000000000000000000000009E
:1002600000000000000000000000000000006432F8
:10027000146432141E140A052223252628292A2C48
:100280002D2F3032333536383A3B3D3E40424345E0
:1002900047494A4C4E5051535557595A5C5E60621B
:1002A000646668696B6D6F71737577797B7D7F812B
:1002B000838587898A8C8E90929496989A9C9E9F2B
:1002C000A1A3A5A7A8AAACAEAFB1B3B4B6B8B9BB49
:1002D000BCBEBFC1C2C3C5C6C7C9CACBCCCDCED0B8
:1002E000D1D2D2D3D4D5D6D7D7D8D9D9DADADBDBA5
:1002F000DBDCDCDCDCDCDDDDDDDDDCDCDCDCDCDB3C
:10030000DBDBDADAD9D9D8D7D7D6D5D4D3D2D2D184
:10031000D0CECDCCCBCAC9C7C6C5C3C2C1BFBEBC77
:10032000BBB9B8B6B4B3B1AFAEACAAA8A7A5A3A1E8
:100330009F9E9C9A98969492908E8C8A89878583AA
:10034000817F7D7B79777573716F6D6B696866648A
:1003500062605E5C5A5957555351504E4C4A49475A
:10036000454342403E3D3B3A3836353332302F2DFF
:100370002C2A292826252322FFAA7F554000010187
:100380000101010101010102020202020202020254
:100390000303030303030303040404040404040524
:1003A00005050505060606060607070707070808E8
:1003B0000808090909090A0A0A0B0B0B0C0C0C0D99
:1003C0000D0D0E0E0E0F0F0F101011111112121332
:1003D000131414151516161717181819191A1A1BAD
:1003E0001B1C1D1D1E1E1F2020212222232424250C
:1003F0002626272829292A2B2C2D2D2E2F30313245
:1004000032333435363738393A3B3C3D3E3F404154
:1004100042434445464748494A4C4D4E4F5051533C
:1004200054555658595A5B5D5E5F616264656668F3
:10043000696B6C6D6F7072737577787A7B7D7E8077
:1004400082838587888A8C8E8F91939596989A9CC3
:100450009EA0A2A3A5A7A9ABADAFB1B3B5B7BABCD7
:10046000BEC0C2C4C6C9CBCDCFD1D4D6D8DBDDDFA8
:10047000E2E4E7E9EBEEF0F3F5F8FAFDFF04033010
:1004800000000030034C006F006E0067006E0061DA
:10049000006C006400200043006F00720069006E71
:1004A0000020004B006500790062006F006100725F
:1004B000006400000012034C006F006E0067006EC5
:1004C0000061006C00640000000403090409023BA1
:1004D00000020100A0FA0904000001030101000963
:1004E00021110100012240000705810308000A09CB
:1004F0000401000103000000092111010001226D27
:10050000000705820320000A120110010000000804
:100510003356241002000102030105010980A101E4
:10052000850319012AB700150126B700950175103A
:100530008100C0050C0901A101850419012AA0024E
:10054000150126A002950175108100C0050109065C
:10055000A1018505050719E029E715002501950882
:10056000750181020507190029EF1500250195F095
:10057000750181020508190129059505750191028A
:10058000950175039101C005010906A1010507192F
:10059000E029E7150025019508750181029501758F
:1005A0000881010507190029FF150026FF0095069F
:1005B0007508810005081901290595057501910245
:1005C000950175039101C00011241FBECFEFDAE041
:1005D000DEBFCDBF04B603FE27C080917C0390919F
:1005E0007D03A0917E03B0917F038730904BA7409D
:1005F000B04BD1F410927C0310927D0310927E03D5
:1006000010927F0314BE84B7877F84BF0FB6F8941F
:10061000A8958091600088618093600010926000CE
:100620000FBEE0E0F8E3099511E0A0E0B1E0EAE9EF
:10063000F5E402C005900D92A03BB107D9F723E085
:10064000A0EBB1E001C01D92AC37B207E1F70E9408
:10065000C61C0C948F220C94000081E0089581E068
:1006600008950C942F0308950C9433031F93CF9394
:10067000DF9300D000D00F92CDB7DEB749835A8305
:100680006B833091D20189819A8131111DC066231B
:10069000B9F02223A9F00E94A917182F682F898189
:1006A0009A810E94551769817A81812F0F900F904E
:1006B0000F900F900F90DF91CF911F910C94EC034E
:1006C0000E948117182FEFCF0E94A91769817A81A4
:1006D000EDCFFC01262F408151816281738184819D
:1006E0000C943603CF93DF93EC0160E00E94690322
:1006F000BE01DF91CF910C9434030E94ED1881115B
:1007000002C00E948A190C94EF050C94F20508951A
:100710000C94870381E008950C948A03CF93C82F2B
:100720000E9488038C2FCF910C948C0308950E9413
:10073000BC120E9496032FEF84E39CE0215080407E
:100740009040E1F700C000000C942B1B0F931F9307
:10075000CF93DF93EC0161E00E9469038C01BE013D
:100760000E943103882359F1BE01C8010E94DA0CAE
:10077000882329F1BE01C8010E942C0D8823F9F0BD
:10078000BE01C8010E944F0E8823C9F0BE01C801F6
:100790000E94BD0B882399F08A81882339F00115C6
:1007A0008CE5180751F00E3D1C4579F0CE01DF9124
:1007B000CF911F910F910C942D030E94970380E01D
:1007C000DF91CF911F910F9108950E948A19F7CF61
:1007D00090E080E008950895972F70E02FE0929FB9
:1007E000600D711D1124FB019BE4899FE00DF11D3B
:1007F0001124EE0FFF1FE455FF4F8591949108954A
:10080000FC01EE0FFF1FE259FD4F85919491089571
:10081000CF93DF930E94EC030E941405EC01811535
:1008200020E5920708F041C0811530E4930708F0F5
:10083000B4C0803E910518F5803C910508F09DC03C
:10084000883A910570F4853A910508F08EC08130A0
:100850009105F9F00097E9F00497D8F4D0E0C0E0F2
:1008600018C08F3B9105D0F7C85AD0E0CC0FDD1FE0
:10087000C35EDE4F0990D881C02DD4640AC08115B3
:10088000904258F4C11581E0D80718F4C83ED1054C
:1008900028F7CE01DF91CF910895C11590E3D907D4
:1008A00008F071C0CE019F706AC0811525E59207DE
:1008B00058F5811534E5930708F09EC0811542E58F
:1008C000940750F4C11581E5D80708F469C0DC2FFE
:1008D000CC27C16FD06ADDCF982F969596959E0153
:1008E00023703327C115D34508F077C0C1E0D0E0AD
:1008F00002C0CC0FDD1F2A95E2F720E2929FC001D3
:100900001124C82BD92B67C0C11589E5D807A8F4D5
:10091000C11598E5D90708F074C0C11526E5D207BE
:1009200008F09CCF8C2F0E94AB05C82FD0E0DC2FA5
:10093000CC27CC27DF71D062ACCFC1153AE5D30705
:1009400008F464C0CE0190568115904208F086CF1D
:100950008D2F8F710E94AB0590E0982F88278827F4
:100960009F719C012C2BE901E6CFC55AD0E0C55BF5
:10097000DE4FC881D0E0D0648CCF805C91090E94AA
:100980000004EC0186CFCE019927D3FF03C0EC0110
:10099000D86C7FCFEC01D06C7CCFDF70D06A79CF80
:1009A000CE01E4E096958795EA95E1F783702C2FC8
:1009B00026952695237090E2299F90011124382BCB
:1009C0008C2F8370C1E0D0E002C0CC0FDD1F8A9570
:1009D000E2F7C22BD32BDC685CCFC1E0D0E002C0D1
:1009E000CC0FDD1F2A95E2F730E2939FC00111245E
:1009F000C82BD92BDA684DCFD82FCC27C46FD06A3B
:100A000048CFDC2FCC27C06FD06A43CF8C2F8F709C
:100A10000E94AB0534E0D695C7953A95E1F7CF70C3
:100A20009C2FEC01D06935CF82389105B1F1B0F43B
:100A30008133910509F475C048F48932910509F4B0
:100A400069C08A32910509F473C008958533910510
:100A500009F459C08933910501F10895833E910548
:100A6000A9F138F4803E9105F9F0823E910549F1F3
:100A70000895863E9105A9F1873E9105C9F1843E0E
:100A8000910519F520916E0321FF1FC080916D0320
:100A900084FD14C087EE90E0089520916D032370CB
:100AA000A1F080EE90E0089520916D0320FD47C0F5
:100AB00030916E0330FF09C024FF44C090E080E015
:100AC00004C020916D0322FDF7CF089520916D039E
:100AD00022FD3BC030916E0330FDE3CF24FFF5CF04
:100AE000EDCF20916D0323FFF0CF24FDE7CFD2CFD0
:100AF00020916D0323FD2CC030916E0331FFEECFAA
:100B000084EE90E0089520916D0325FFDECF89E209
:100B100090E0089520916D0325FFD7CF85E390E005
:100B2000089520916D0326FFD0CF8AE290E00895CA
:100B300020916D0326FFC9CF81E390E0089589E3FA
:100B400090E0089583EE90E0089582EE90E008959D
:100B500086EE90E0089590916D0392FF06C0282FD5
:100B600028712830F9F4877F846093FF06C0282F0E
:100B700028712831F1F4877E846120916E0320FF73
:100B800006C0382F38713830D9F4877F816021FF53
:100B900006C0282F28712831D1F4877E816194FD09
:100BA000877E0895282F24712430F9F68B7F886082
:100BB000DCCF282F2471243101F78B7E8861DDCFB3
:100BC000382F3171313019F78E7F8860E0CF282FB0
:100BD0002171213121F78E7E8861E1CF08950C9437
:100BE000EE0508950C94F105E82FF0E0EE0FFF1FDD
:100BF000E656FD4F808191810895089580EA8A9597
:100C0000F1F70895CF93DF93ADE5B1E042E651E00F
:100C1000C1E0D0E08D91E82FE295EF70F0E061A1A6
:100C20008F709E0101C0220F8A95EAF7922F90954E
:100C3000962391A382A1822B82A34A175B0751F7C7
:100C4000AEE4B1E061E070E08D91E82FE295EF70E5
:100C5000F0E041A18F709B0101C0220F8A95EAF755
:100C6000922F9095942391A382A1822B82A381E05D
:100C7000AD35B80749F71092910210929002109288
:100C80009B0210929A02109293021092920210927A
:100C90009D0210929C021092950210929402109262
:100CA0009F0210929E02109297021092960210924A
:100CB000A1021092A0021092990210929802109232
:100CC000A3021092A20285E00E94F106DF91CF916B
:100CD0000C947D038F929F92AF92BF92CF92DF923E
:100CE000EF92FF920F931F93CF93DF938DE5E82E42
:100CF00081E0F82E00E912E0912CAA24A394B12CF3
:100D0000F70181917F01C82FC295CF70D0E099A1E2
:100D10008F70650101C0CC0C8A95EAF7892F8C2968
:100D200089A38AA18C2C809488218AA30E94FE0525
:100D3000EEE4F1E050E040E030E020E06191A62FE9
:100D4000A295AF70B0E090968C9190E06F7002C069
:100D5000959587956A95E2F780FD3EC0C501042E02
:100D600002C0880F991F0A94E2F7282B392B4F5F96
:100D70005F4F4F30510511F789A1882289A28AA1BE
:100D8000C82ACAA2F801808191812817390739F150
:100D90003183208381E0982A0E5F1F4FF2E6EF1621
:100DA000F1E0FF0609F0ACCF292D45E06AE972E0D9
:100DB00080E992E00E94F2060E948503892DDF916E
:100DC000CF911F910F91FF90EF90DF90CF90BF9048
:100DD000AF909F908F90089590E080E0C6CF80E024
:100DE000DACF0895FF920F931F93CF93DF93F82EDE
:100DF000092F162FD72FC42F222349F081E080938B
:100E0000B2010E94EC1A9093B1018093B0018091DD
:100E1000B2018823A1F08091B0019091B1010E94AC
:100E2000F81A069760F0EF2DF02FA12FBD2F90E05C
:100E300080E0D0E08C179D0744F01092B201DF9162
:100E4000CF911F910F91FF900895219131912D9392
:100E50003D930196EFCFEF92FF920F931F93CF93A5
:100E6000DF93EB01E82FD11110C0442321F0F0E013
:100E7000E358FC4FE4916E2F7E2F8E2FDF91CF91A0
:100E80001F910F91FF90EF9008950D2F10E0282FE4
:100E900030E0442329F023583C4FF901249130E0FD
:100EA000F6E0CF9FC0011124EFEFF0E0BF010E94F8
:100EB0000C22AB018C2F90E0880F991FA5E5A49F11
:100EC000B001A59F700D1124861B970B982F990FC9
:100ED000980FBF01601B710B629FD001639FB00D23
:100EE000729FB00D11248B2F9D9FB0011124672F8D
:100EF0007727EF01C61BD70BBE01629FE001639FFE
:100F0000D00D729FD00D11247F01E91AF108E09EE7
:100F1000B001E19E700DF09E700D1124672F7727B0
:100F2000E61BF70BE29F8001E39F100DF29F100D6F
:100F30001124E12F722F4230510599F048F44115E8
:100F4000510569F04130510581F0EB2F8D2F07C01D
:100F50004430510569F080F046305105B1F76E2FED
:100F60008DCFE22F7B2F812FFACFE22F7D2FF7CF6E
:100F7000EB2F822F712FF3CF7B2F822FED2FEFCF0F
:100F800041E00C942B070895CF93DF93762FE9016E
:100F9000682F842F0E94C007798368838A83DF913A
:100FA000CF910895493C08F048EC0C94C407809117
:100FB000A402982F9E7F61F4817082608093A402C6
:100FC0008091A702893C18F088EC8093A7020895CD
:100FD0008833B0F381708663F1CF88E090E00C94A1
:100FE0004F22CF92DF92EF92FF926B017C010E9421
:100FF000D707B701A60188E090E0FF90EF90DF905F
:10100000CF900C946D22E4EAF2E083E080831182B9
:101010008FEF828388EC8383148260817181828167
:1010200093810C94F1078091A40280FF02C0869501
:10103000089580E008959091A802933018F49F5F7E
:101040009093A802882351F06091A4027091A502A8
:101050008091A6029091A7020C94F107089581E077
:101060000C941B089091A802992319F09150909329
:10107000A802882351F06091A4027091A50280918A
:10108000A6029091A7020C94F107089581E00C94B8
:10109000320870E00C94230C609101018091A4024D
:1010A00080FF0AC08091000123E0829FC0011124CB
:1010B00087559D4F0C94490880910201909103013E
:1010C00023E0829FF0011124E755FD4F891750F767
:1010D0001182108212828F5F3396F8CF9091A40212
:1010E00090FF14C0909102012091030133E0939F7F
:1010F000F0011124E755FD4F921710F00C944C08A5
:101100008183608342839F5F3396F6CF0895CF93A8
:10111000DF9300D00F92CDB7DEB79091A40290FF7D
:101120000AC09E012F5F3F4F0E94D2074B81698109
:101130008A810E946E080F900F900F90DF91CF91DF
:101140000895CF93DF93EC01EC81F0E0E858FD4F78
:101150004491E4EAF2E0628181810E9487088C81F7
:101160008F5F8C83DF91CF910895AF92BF92CF9222
:10117000DF92EF92FF920F931F93CF93DF9300D0F4
:101180000F92CDB7DEB7182FF62E042FE22E8091E6
:10119000A40280FF29C0E82FE695AE2FB0E0AE593B
:1011A000BE4F9C919093BB018E7F823059F59E017A
:1011B0002F5F3F4F812F0E94D2074B8169818A8127
:1011C0000E946E081093A502F092A6020093A70257
:1011D000EE2051F06091A4027091A5028091A602C8
:1011E0009091A7020E94F1070F900F900F90DF914E
:1011F000CF911F910F91FF90EF90DF90CF90BF9014
:10120000AF900895923019F40091A702DBCF963089
:1012100019F41091A502D6CF9231A1F6E2518E2F8A
:101220008170D82EE695F0E0E858FC4FA590B49078
:10123000C12CBB2460910401C61618F00E944C0812
:10124000C1CF2C2D30E0A29EC001A39E900DB29E76
:10125000900D112470E00E940C22812FD11013C038
:10126000860F40910201420F532F511D9A01220F08
:10127000331F240F351F27553D4F402F6F2D0E94E0
:10128000D207C394D7CF861BECCFE4EAF2E091817A
:10129000282F4381628184E1890F0C94B50881E095
:1012A0000C944509E4EAF2E09181282F43816281A0
:1012B0008CEE890F0C94B50881E00C945209E4EA95
:1012C000F2E0628124E1620F08F46FEF282F43817E
:1012D00081810C94B50881E00C945F09E4EAF2E0A6
:1012E000628124E1621B08F460E0282F4381818140
:1012F0000C94B50881E00C946E09E4EAF2E04381B5
:1013000028E2420F08F44FEF282F628181810C946C
:10131000B50881E00C947D09E4EAF2E0438128E21B
:10132000421B08F440E0282F628181810C94B508AB
:1013300081E00C948C0920E00C94B508EF92FF92A8
:101340001F93CF93DF93EC0110E0EE24EA94F12C8D
:1013500060910401161770F00E944C089A818C81EC
:1013600090FF27C08F5F8C83DF91CF911F91FF90FB
:10137000EF90089520910201422F410F5527551FEC
:10138000CA019A01220F331F280F391F27553D4FDD
:1013900070E0C7010E942022962F8C814091A70205
:1013A0006091A602199F800D11240E94D2071F5F31
:1013B000CFCF8150D8CFBF92CF92DF92EF92FF92E2
:1013C0000F931F93CF93DF93FC0182810FEF80FF78
:1013D00001E010E0809104011817C0F00E944C0851
:1013E0008091B301013009F051C0811102C0809198
:1013F000040181508093B301DF91CF911F910F9130
:10140000FF90EF90DF90CF90BF900895C0910201C0
:10141000C12ED12CCC0DDD2DD11DCE01880F991FF1
:10142000C80FD91FC755DD4F198218821A8234E0C0
:10143000E32EF12CB12C8091B3018B0D813404F19A
:101440008F73082E000C990BC816D90691F4809161
:10145000A7028E9DA0018F9D500D11245595479593
:10146000559547959E016091A6028091A5020E9424
:10147000D207B00EF1E0EF1AF108E9F61F5FAACF2C
:1014800087FFDFCF90910401890FDBCF90E00196B9
:101490006091040170E00E942022ACCFE4EAF2E007
:1014A00080818E7F808360817181828193810E949F
:1014B000F1071092BC012FEF80E792E021508040AD
:1014C0009040E1F700C000000C944C08E4EAF2E020
:1014D00080818E7F80831092BC012FEF80E792E0A5
:1014E000215080409040E1F700C000000C944C086F
:1014F0006091A402669570E04BE050E085E091E0D9
:101500000E943A22892B19F481E08093BC010E9449
:10151000EC1A9093B5018093B40108959091A402C0
:1015200090FF35C09170811128C092609093A40201
:10153000662351F06091A4027091A5028091A602E9
:101540009091A7020E94F1076091A402669570E055
:101550004BE050E085E091E00E943A22892BA1F017
:101560001092BC0181E08093B7014091A702609185
:10157000A6028091A5020C949B098C3110F0966311
:10158000D5CF880F982BD2CF0E94780AEBCF089541
:10159000682F9091A402969581E0890F8C3108F014
:1015A00081E00C948E0A81E00C94C80A682F909117
:1015B000A40296958FEF890F09F48BE10C948E0AA3
:1015C00081E00C94D60A61E00C948E0AE4EAF2E021
:1015D00080818160808386950C94E30A8091A402C7
:1015E00080FD0C944E0A0C94E60A60E00C948E0A7E
:1015F0008091BA0181112EC00E94ED18811104C0A2
:101600000E948A190E9403080E94ED076093A402B9
:101610007093A5028093A6029093A7026E7F61F457
:101620000E9403080E94ED076093A4027093A50234
:101630008093A6029093A7020E94D7071092BC0144
:101640008091A40280FF03C086950E94F50A81E084
:101650008093BA010895E4EAF2E08081816080839A
:1016600086950C94F50A1092BC0108950F931F9370
:10167000CF93DF938091BC01882309F45FC08091F0
:10168000BB01E091A402E695E81BE093B60182302D
:10169000C1F5F0E0EC58FD4FE491CE2FD0E001EA27
:1016A00018E08091B701882389F01092B7010E9459
:1016B000EC1A9E0120953095820F931F9093B501EF
:1016C0008093B4011092B9011092B8018091B401D5
:1016D0009091B5010E94F81A8C179D0778F1E0915E
:1016E000B401F091B501CE0FDF1FD093B501C093C7
:1016F000B40184EB91E0F801DF91CF911F910F913C
:101700000994863051F4E695F0E0EF58FD4FE491EE
:10171000CE2FD0E00EE919E0C4CFC0EDD7E003EC46
:1017200017E08C3009F0BDCFE695F0E0E259FD4FAF
:10173000E491CE2FD0E00BED19E0B3CFDF91CF9144
:101740001F910F910895FA01811101C0FB010994C5
:10175000CF93DF93C82FD62F0E9413088C1740F029
:101760000E9413088D1720F4DF91CF910C94D30AB7
:101770008C2FDF91CF910C94E30A0F931F93CF939B
:101780008C01FB01C281CC2309F45BC00E943E188E
:101790008272F801E25CFC45E431F10538F4EF5661
:1017A000FD4D0C9434220E94EE0AC0E08C2FCF91A4
:1017B0001F910F91089540EE5AE063ED7AE00E9488
:1017C000A30BF3CF43ED5AE060EE7AE0F8CF4CE59F
:1017D00059E06FE479E0F3CF4FE459E06CE579E04C
:1017E000EECF4AE759E06BE679E0E9CF4BE659E006
:1017F0006AE779E0E4CF48E959E069E879E0DFCFCA
:1018000049E859E068E979E0DACF46E458E06FE268
:1018100078E0D5CF4FE258E066E478E0D0CF81E0C1
:101820000E94E30AC2CF65E082E00E94A80BBDCF10
:101830006BE086E0FACF61E18CE0F7CF6BE182E10B
:10184000F4CFC1E0B3CF539A4BB1477F5BB158603F
:10185000EFB7F8949B01220F331F260F371F280F75
:10186000391F2817390741F4EFBF8FE594E001973E
:10187000F1F700C000000895DC016D91CD0178E022
:101880005BB9000000C067FF4BB9660F000000C0E5
:1018900000C000C04BB900C07A9591F7E2CFAF927B
:1018A000BF92CF92DF92EF92FF920F931F93CF934D
:1018B000DF937C015B01C42FD22FFC01828188233E
:1018C000F9F04093BF010E94EC1A9093BE018093FF
:1018D000BD0180E28C0F883008F061C0C77081E0E4
:1018E00001C0880FCA95EAF7DF91CF911F910F9140
:1018F000FF90EF90DF90CF90BF90AF900C944F107F
:101900001091BF01141340C08091BD019091BE01A0
:101910000E94F81A6C01B701C5010E943215C81661
:10192000D90690F5C0E2CD0F1D17B9F080E2810F06
:10193000883040F4177081E001C0880F1A95EAF7EB
:101940000E945610C83048F481E09D2F977001C066
:10195000880F9A95EAF70E944F10802F0E943C1042
:10196000C830E8F4D77081E001C0880FDA95EAF753
:10197000DF91CF911F910F91FF90EF90DF90CF906B
:10198000BF90AF900C94561080E28C0F883038F4E2
:10199000C77081E001C0880FCA95EAF7E9CFDF91EF
:1019A000CF911F910F91FF90EF90DF90CF90BF905C
:1019B000AF9008950F939C01CB01233F4CE5340772
:1019C00059F1A8F4283DFCE53F0701F1293D4CE51C
:1019D0003407D1F1273D3C4591F406E221EE41EE7A
:1019E00067ED7CE50E944F0C80E00F910895253F44
:1019F000FCE53F07E9F0B0F0263F3C45F9F0FC017B
:101A00008281882339F11092BF01EFCF07E225EEE2
:101A100045EE68ED7CE5E6CF06E221EE40EE63EFB1
:101A20007CE5E0CF07E225EE44EE64EF7CE5DACF1B
:101A300006E221EE42EE65EF7CE5D4CF07E225EE2B
:101A400046EE66EF7CE5CECF08E221E045EE69ED9B
:101A50007CE5C8CF81E0C9CFCF93DF93EC01FB01D8
:101A60008281882309F419C1C230FCE5DF07C0F187
:101A7000C6319CE5D90730F09E012A5F3C452930EC
:101A8000310570F50E94001990936E0380936D03E9
:101A9000C031ECE5DE0709F4CFC008F05BC0C83008
:101AA0008CE5D80709F4B6C088F5C430ECE5DE074C
:101AB00009F4A8C0C0F4C2308CE5D80709F49CC072
:101AC00080916D038260C330DC4509F498C0809139
:101AD0006D0390916E030E940E190E94BC1280E06B
:101AE000DF91CF91089580916D038061C630ECE560
:101AF000DE0709F484C080916D038860C730DC453F
:101B000008F47DC080916D03806279C0CC308CE593
:101B1000D80709F489C070F480916D038C60CA30D5
:101B2000ECE5DE0709F46BC008F478C080916D0322
:101B30008E7F65C0CE308CE5D80709F479C08091DE
:101B40006D038B7FCF30DC4508F459C080916D0365
:101B50008F7E55C0CB3FECE5DE0709F457C030F56A
:101B6000C3318CE5D80709F46FC078F4C131ECE5D6
:101B7000DE0709F465C0C231DC4509F0A8CF0E9438
:101B8000BC1280916D038F773AC0C5318CE5D807C0
:101B900009F462C008F476C080916E038160CA3F88
:101BA000DC4509F094CF80936E0391CFCF3FFCE5E5
:101BB000DF0709F44DC088F480916E038D7FCD3F1F
:101BC0009CE5D90781F380916E038E7FCE3FDC4583
:101BD00050F380916E038360E6CFC130FDE5DF07EF
:101BE00009F459C008F444C080E0C230DD4509F072
:101BF0006ECF0E948C196BCF80916D0381608093B2
:101C00006D0365CF80916D038460F9CF80916E0381
:101C10008260C9CF80916D038064F1CF0E94BC12B5
:101C200080916D038068EBCF80916D038D7FE7CF4E
:101C300080916D03877FE3CF80916D038F7DDFCF30
:101C400080916D038F7BDBCF80916D03837FD7CF36
:101C500080916E038C7FA7CF80916D0382FB9927C3
:101C600090F921E0922790FB82F990FB83F9C7CF8E
:101C700080916E03982F909591708E7F892B90FBA9
:101C800081F991CF0E94BC1290916D03892F97FB2F
:101C900087F98058B4CF81E0ACCF81E021CFCF93DA
:101CA000DF93EB0186319C4511F50E943E189A8125
:101CB000992399F08A7A91E009F490E09093C00119
:101CC000811109C089E20E9419180E948A1880E0D7
:101CD000DF91CF91089585E3F6CF8091C001811106
:101CE00004C089E20E942018F0CF85E3FBCF81E099
:101CF000EFCF9093C6018093C5010895E091C5018F
:101D0000F091C601309721F00190F081E02D099407
:101D100080E00895E091C501F091C601309799F0F7
:101D200020911C01222359F020916D0327FF07C049
:101D3000DC012C9111962C93119725E02C930280B5
:101D4000F381E02D099408952091C3013091C401DD
:101D50002817390771F09093C4018093C301E09173
:101D6000C501F091C601309721F00680F781E02D82
:101D7000099408952091C1013091C20128173907B3
:101D800071F09093C2018093C101E091C501F0917F
:101D9000C601309721F00084F185E02D0994089563
:101DA00085B7806885BF85B7806885BF0895089529
:101DB00008950C94D70E08950C94DB0E0E94D00E5B
:101DC0000E94D80E0C94D90E81E008950C94E40E74
:101DD0000E94E31A0E9402060E944F1B0E94F80A0A
:101DE0000C94DC0E9F92AF92BF92CF92DF92EF9253
:101DF000FF920F931F93CF93DF93CDB7DEB72A9750
:101E00000FB6F894DEBF0FBECDBF0E946A060E94D7
:101E1000E60E882309F470C058ECA52E51E0B52ECB
:101E200010E000E0902E802F0E94F4056C01F50177
:101E3000E190F1905F01E816F90609F457C080912E
:101E40006A0281FD0E94FD0597012C253D2580E059
:101E5000EE24E394F12CA9014E215F21452B09F4D6
:101E60003FC08E839F82CE20DF2081E0CD2809F401
:101E700080E088870E94EC1A8160782F9A87898792
:101E80004E815F8168858A850E949F0F000F111F18
:101E9000F801E853FE4F80819181E826F926F1820E
:101EA000E0820E94360B0E947E0E9091C701891736
:101EB000A1F10E947E0E8093C7012A960FB6F89476
:101EC000DEBF0FBECDBFDF91CF911F910F91FF906D
:101ED000EF90DF90CF90BF90AF909F900C948E03C7
:101EE0008F5FEE0CFF1C8F3009F0B5CF0F5F1F4FD7
:101EF0000530110509F096CF8FEF89838A831B8205
:101F00000E94EC1A8160782F9D838C8349815A81CD
:101F10006B818D810E949F0FC4CF2A960FB6F894D3
:101F2000DEBF0FBECDBFDF91CF911F910F91FF900C
:101F3000EF90DF90CF90BF90AF909F900895CF9398
:101F4000DF93CDB7DEB72B970FB6F894DEBF0FBE89
:101F5000CDBF4F83588769877A878B871E821D8202
:101F600085E0FE013796DE01119601900D928A956B
:101F7000E1F749815A816B817C818D819E812B960D
:101F80000FB6F894DEBF0FBECDBFDF91CF910C949A
:101F90003515FC01808191810C94EB17CF93C82FEC
:101FA000882309F43FC08CEF8C0F813AA0F46C2F8A
:101FB00080911001909111010E94A519882329F0A8
:101FC0008C2F0E9420180E948A188C2F0E941918AA
:101FD000CF910C948A1880E28C0F883048F4C77037
:101FE00081E001C0880FCA95EAF70E944118F0CF3E
:101FF000EBE5EC0FE33040F4F0E0E455FE4F808178
:1020000090E0CF910C94A40EC85AC73158F4EC2F2D
:10201000F0E0EE0FFF1FE258FE4F80819181CF91DB
:102020000C94BA0ECF910895882329F19CEF980F54
:10203000913A20F40E9420180C948A1890E2980F8C
:10204000983050F4877091E001C0990F8A95EAF7B3
:10205000892F0E944718F0CF9BE5980F933020F40A
:1020600090E080E00C94A40E885A873120F490E030
:1020700080E00C94BA0E0895CF93C82F0E94CE0F23
:10208000C93349F42FEF87EE93E021508040904010
:10209000E1F700C000008C2FCF910C94141088231E
:1020A00021F00E9441180C948A180895882321F089
:1020B0000E9447180C948A180895BF92CF92DF921D
:1020C000EF92FF920F931F93CF93DF936C01D62F64
:1020D000C72FFC01058102950F70128111110E941A
:1020E0005E180E943718E82E882391F01123D1F052
:1020F0008C2F807F803421F080E28D0F883090F02B
:1021000082E00E94D5180E94371891E0E82EE92657
:10211000BC2EB2949FE0B922EB2DF0E0EB55FD4DC3
:102120000C943422E12CF4CF0C2F0F70C07F11F0EF
:102130000295007F1123A9F0002359F080E28D0F52
:10214000883010F0D11109C0802F0E9441180E94E0
:102150008A188D2F0E94CE0F14C0802F0E94511814
:10216000F6CF8D2F0E941410002359F080E28D0FBE
:10217000883010F0D1112CC0802F0E9447180E9487
:102180008A182B2D2850330B2430310520F40E945F
:102190007E0E0E948E03EE2009F493C10E94331834
:1021A00080FD8FC1F60112820E942D180E94B9167F
:1021B000C6010E9482120E942D18DF91CF911F91BB
:1021C0000F91FF90EF90DF90CF90BF900C94DA16B4
:1021D000802F0E945718D3CFFC2FFF70FF2EC07F97
:1021E000C03219F0F29480EFF822DD2369F0D1308B
:1021F00049F1112391F1002351F1F601858180FF0E
:10220000A8CF8F70858323C0112381F0011106C0F0
:102210000E9471188F290E944F10B3CF0130C1F76F
:102220000E9471188F290E947718ABCF011106C048
:102230000E9480188F2D0E945610A3CF013009F400
:10224000A0CFF6CF112329F0063008F09ACF8F2DBA
:10225000E2CF053008F095CFEDCF002359F3D93305
:1022600049F4FFEF27EE33E0F15020403040E1F732
:1022700000C000008D2F0E94141083CF8C2F8695F4
:102280008695837069F0813009F07BCF8D2F9C2F6C
:102290009370111102C090E080E00E94BA0E71CFDD
:1022A0008D2F9C2F9370111102C090E080E00E944E
:1022B000A40E67CF8C2F837009F041C0111161CF3C
:1022C0004D2F429546954770440F440F0D2F0F70C8
:1022D00010E030E020E0042E04C0000F111F221F88
:1022E000331F0A94D2F760E070E0CB01D4FF0FC037
:1022F0006FE070E080E090E004C0660F771F881FF9
:10230000991F4A95D2F76095709580959095C695DE
:10231000C695C370602B712B822B932BC23049F072
:1023200058F4C13019F00E946B162BCF0E94591639
:1023300028CF0E947D1625CF0E94571622CF869562
:10234000112311F08C2F8170882309F41ACF4D2F9F
:10235000429546954770440F440F0D2F0F7010E0C3
:1023600030E020E0042E04C0000F111F221F331F95
:102370000A94D2F760E070E0CB01D4FF0FC06FE0A9
:1023800070E080E090E004C0660F771F881F991FFF
:102390004A95D2F76095709580959095C695C695AB
:1023A000C370602B712B822B932BC23049F058F4F1
:1023B000C13019F00E943017E4CE0E941E17E1CE02
:1023C0000E944217DECE0E949316DBCECF701123FF
:1023D00029F08C2F0E94B9168D2F1DCF8D2F0E94B2
:1023E00056108C2F0E94DA16CCCED23F89F160F4C1
:1023F000D03FC9F0D13F29F1112309F442C00111A6
:10240000A8CE8C2F8F7121C0D33F39F1D43FA1F7D3
:10241000112369F1CF718C2F0E94B91663E08C2FC4
:102420000E94C018AECE112341F0053008F0A9CEAD
:102430008C2F8F710E94FD16A4CE063008F0A1CE1D
:10244000F7CF8C2F8F71112369F20E94B91699CEA4
:102450008C2F8F711123C9F3C5CF112329F08C2F35
:102460008F710E94A4168DCE0E949F168ACE81E0A5
:102470000E94D518023008F484CE82E00E94D5185C
:1024800080CE002359F0D93309F0F4CE8FEF97EEC8
:10249000E3E081509040E040E1F7EACE8C2F8F716D
:1024A000A1CF4C2F4F706D2FC6010E94E8030E94F0
:1024B000CF1567CE4C2F4F706D2FC6010E94EB03D6
:1024C00060CEDF91CF911F910F91FF90EF90DF9041
:1024D000CF90BF9008950F931F93CF93DF93EC019C
:1024E000688179818A810E94F5178C010E945417B6
:1024F0000E945616B801CE01DF91CF911F910F9126
:102500000C945D10CF93DF93EC018B819C81892B20
:1025100029F08881998189238F3F59F4DF91CF91E8
:102520000895CE010E946B12CE01DF91CF910C94E1
:102530007203CE010E94A6038111F3CF0E943718C7
:10254000882361F38A81882349F382E0DF91CF9168
:102550000C94D5180E945E180E946E180E948A186A
:1025600090E080E00E94A40E90E080E00C94BA0E0F
:102570000E9427180C94AA120E944E180C94B812AC
:10258000E92FE295EF70E250EE3070F4F0E0EB549A
:10259000FD4D0C943422803F19F020F4883E20F445
:1025A00081E00895843FE1F380E00895883EC0F320
:1025B000813FD1F7F5CF93FB882780F908950E94DA
:1025C000EB170C94C012CF93DF9300D000D00F9282
:1025D000CDB7DEB70F900F900F900F900F90DF9157
:1025E000CF910895CF93DF9300D000D000D0CDB726
:1025F000DEB726960FB6F894DEBF0FBECDBFDF91D3
:10260000CF9108951F93CF93DF93C091D30116E02C
:102610008091D4018C1304C0DF91CF911F91089554
:10262000D0E01C9FF0011D9FF00D1124EB52FE4FD6
:102630004081518162817381848195810E94F2126F
:102640002196C770E5CF4091050250910602609136
:102650000702709108028091090290910A020C947D
:10266000F2121F93CF93DF9380910A02807FA9F427
:1026700080910702882389F08091D301C091D40111
:102680006091050270910602A0910802B0910902C2
:10269000D62FD72316E0C81304C0DF91CF911F9126
:1026A000089590E0109711F0DF3F19F401968770BC
:1026B000F2CF189F9001199F300D1124F901EB52B0
:1026C000FE4F41814713F2CF40814613EFCF428145
:1026D0004111ECCF438154814A1B5B0B483C5105AF
:1026E00028F780910A028F70806180930A02F901B5
:1026F000E652FE4F80818F708061808385E092E09A
:102700000E948212DF91CF911F910C940213AF921D
:10271000BF92CF92DF92EF92FF920F931F93CF93CE
:10272000DF93CDB7DEB761970FB6F894DEBF0FBE6B
:10273000CDBF8C0185E0F801DE011D9601900D9260
:102740008A95E1F7F80140815181E28085E0C82E49
:1027500082E0D82E6091080270910902611571051E
:1027600009F461C19091050220910602892F82230C
:102770008F3F09F458C1A380B480F0900702F5019F
:10278000E61BF70BFF2009F4FCC080910A02382FEA
:10279000307FE83CF10508F0B2C0311179C0FE2C61
:1027A000251323C0941321C0E1101FC08F708061D6
:1027B00080930A020E942313C6010E948212809114
:1027C0000A02F80185838F2D61960FB6F894DEBF5B
:1027D0000FBECDBFDF91CF911F910F91FF90EF9072
:1027E000DF90CF90BF90AF900895AB2829F0842F51
:1027F00085238F3F09F033C180E0F82FF170DF2E81
:1028000080FF3CC08091D3012091D40136E0821337
:1028100015C04D875E878D859E850E94EB17292FF9
:1028200022952F702230F0F0243018F59F70F1F0CF
:10283000F8019581907FD1F4D12C1EC090E0389F93
:10284000F001399FF00D1124EB52FE4F61816513A9
:1028500006C06081641303C062816E110FC00196CF
:102860008770D5CF9F7011F0882331F3805E883058
:1028700018F3C8010E948212FD2CA5CFEE2009F4A6
:10288000A2CF80910A02816080930A02F12C9BCF33
:10289000251306C0941304C0F801EE2009F48DC07E
:1028A0004D875E878D859E850E94DF12882319F1F2
:1028B000EE2009F180910A02803270F02091050229
:1028C0003091060238872F831986BB86AA868C87AB
:1028D000CE0107960E94821286E0F801A5E0B2E0E0
:1028E00001900D928A95E1F70E9431130E94231303
:1028F000FF24F39468CFC8010E948212F9CF3111EE
:1029000013C07A2DB98AA88A6E2D89890E94E31294
:1029100085E092E00E94821286E0F60111928A958B
:10292000E9F70E942313B2CF25130FC094130DC0F3
:10293000E1100BC0F8018583C8010E94821286E075
:10294000F60111928A95E9F73ECF4D875E878D8516
:102950009E850E94DF12882371F2EE2061F2809141
:102960000A02803208F4B8CF2091050230910602A5
:102970003A8329831B82BD82AC828E83CE0101966D
:10298000A9CFE83CF10508F041C0FE2CEE2009F487
:10299000B2CF25132AC0941328C080910A0280FD6B
:1029A0001BC0982F907FC1F0F8018583903F31F0D4
:1029B000982F907F905F8F70892B8583C8010E942C
:1029C000821286E0F801A5E0B2E001900D928A95AE
:1029D000E1F70E942313F7CE86E0F801A5E0B2E00C
:1029E00001900D928A95E1F7EECE4D875E878D8539
:1029F0009E850E94DF1281116FCF80910A02816053
:102A000080930A02C8010E948212DDCE7A2DB98A13
:102A1000A88A6E2D89890E94E31286E0F601119240
:102A20008A95E9F7D6CFEE2009F465CF4D875E870A
:102A30008D859E850E94DF12F82E882309F45BCFD6
:102A400086E0F801A5E0B2E001900D928A95E1F7E9
:102A500085E092E00E94C90F0E943113BACF81E055
:102A60008E25CBCE88EC90E008951F93CF93DF9313
:102A7000CDB7DEB72C970FB6F894DEBF0FBECDBF33
:102A80004F83588769877A878B879C87CE01079603
:102A90000E948713882369F08A859B85892B39F0EA
:102AA0004F815885842F85238F3F09F071C016E030
:102AB0005FC086E0FE013796DE01119601900D920F
:102AC0008A95E1F78A859B85892B89F38F81988583
:102AD00089238F3F61F32091D40130E0C901019631
:102AE000877099274091D3014817190671F40E9405
:102AF000BC121092D4011092D30186E0E5E0F2E01E
:102B0000DF011D928A95E9F7D2CF96E0929FD0011E
:102B1000939FB00D1124AB52BE4FFE013196019030
:102B20000D929A95E1F78093D4010E940213BFCFD2
:102B3000819FC00111248B529E4F0E9487138823CE
:102B4000E9F0E091D3011E9FF0011124EB52FE4FFA
:102B50004081518162817381848195810E94F2124A
:102B60008091D30190E00196877099278093D301DB
:102B70008091D3019091D4018913DACF2C960FB6AE
:102B8000F894DEBF0FBECDBFDF91CF911F910895A6
:102B900069857A858B859C850E94F21288CFEF9299
:102BA000FF920F931F93CF93DF938C01892B81F0BA
:102BB000F12CEE24E394E8012196F8018491843706
:102BC00070F4843008F05FC08130B1F08230A1F140
:102BD000DF91CF911F910F91FF90EF90089585376E
:102BE00009F44CC008F43DC09CE7980F903780F77B
:102BF0008F770E94141049C00E5F1F4FFE01849111
:102C000090E2980F983060F48770FE2D01C0FF0F9E
:102C10008A95EAF78F2F0E9461180E948A1802C0D5
:102C20000E94CE0F8F2D815030F2EFE9FFE03197F7
:102C3000F1F700C00000F7CF0E5F1F4FFE01849137
:102C400090E2980F983050F48770FE2D01C0FF0F6E
:102C50008A95EAF78F2F0E946718DFCF0E94141021
:102C6000E1CF0E5F1F4FFE01C491C150D8F28FE932
:102C70009FE00197F1F700C00000F7CF0E5F1F4FF4
:102C8000FE01F490CFCF0E94CE0F8E01CBCF0895DE
:102C90000C9447160E9448166093410270934202BA
:102CA00080934302909344020C94AA1208950C94CA
:102CB0004A160F931F9300914102109142022091F6
:102CC000430230914402602B712B822B932B1F9176
:102CD0000F910C944A160F931F930091410210918B
:102CE00042022091430230914402602371238223E7
:102CF00093231F910F910C944A160F931F930091E9
:102D00004102109142022091430230914402602717
:102D10007127822793271F910F910C944A160C94C8
:102D200047160C948F160E94911660933D02709383
:102D30003E0280933F02909340020C94AA1260E0FE
:102D400070E0CB010C9493160F931F9341E050E079
:102D500060E070E08A019B0104C0000F111F221F78
:102D6000331F8A95D2F7C901B8011F910F910C94B6
:102D700093160F931F9341E050E060E070E004C0B1
:102D8000440F551F661F771F8A95D2F780913D0229
:102D900090913E02A0913F02B09140028A019B01B6
:102DA000082B192B2A2B3B2BC901B8011F910F911E
:102DB0000C9493160F931F9341E050E060E070E095
:102DC00004C0440F551F661F771F8A95D2F7CB01A9
:102DD000BA01609570958095909500913D02109193
:102DE0003E0220913F0230914002602371238223F2
:102DF00093231F910F910C9493160F931F9341E00F
:102E000050E060E070E004C0440F551F661F771F5C
:102E10008A95D2F780913D0290913E02A0913F02A7
:102E2000B09140028A019B01082719272A273B27D6
:102E3000C901B8011F910F910C9493160F931F9322
:102E400000913D0210913E0220913F0230914002DC
:102E5000602B712B822B932B1F910F910C94931647
:102E60000F931F9300913D0210913E0220913F026B
:102E70003091400260237123822393231F910F918D
:102E80000C9493160F931F9300913D0210913E02F4
:102E900020913F02309140026027712782279327BB
:102EA0001F910F910C94931608952FE0929F800D1F
:102EB0001124982F977041E001C0440F9A95EAF7CA
:102EC00086958695869595E0899FF0011124E55FAA
:102ED000FD4F90E080E070E05191DF0111979B0180
:102EE000082E02C0369527950A94E2F721702195A5
:102EF0002527242325272C9301968530910561F7FA
:102F000008952FE0929F800D1124982F9770869539
:102F10008695869525E0829FF0011124E55FFD4F9F
:102F200050E040E080E0219130E0092E02C036956B
:102F300027950A94E2F721703327042E01C0220F4F
:102F40000A94EAF7822B4F5F5F4F4530510559F7DE
:102F50000895BF92CF92DF92EF92FF920F931F934B
:102F6000CF93DF938C01C0903D02D0903E02E09061
:102F70003F02F09040028091410290914202A09164
:102F80004302B0914402C82AD92AEA2AFB2ACFE197
:102F9000D0E0BC2ED701C6010C2E04C0B695A79573
:102FA000979587950A94D2F780FD0EC0219788F7F0
:102FB000B12C8B2DDF91CF911F910F91FF90EF904E
:102FC000DF90CF90BF900895B8018C2F0E94080425
:102FD000019761F3EECFCF93DF93EC010E94A91725
:102FE000BE01DF91CF910C9408041F93CF93DF9320
:102FF000EB019091D201992331F0CB01DF91CF9178
:103000001F910C94EB17882379F0CB010E94A9172C
:10301000182F682FCE010E945517BE01812FDF9116
:10302000CF911F910C940804CB010E948117182F97
:10303000F4CF682F80911001909111010C94251A02
:10304000682F80911001909111010C94301A809199
:103050001001909111010C943B1A809145028595C5
:103060008595859508958091450287700895909182
:103070004502977081E009F480E00895809169022B
:10308000089590916902892B809369020895809533
:1030900090916902982390936902089510926902B1
:1030A000089590916802892B809368020895809515
:1030B0009091680298239093680208951092680294
:1030C000089590916702892B8093670208958095F7
:1030D0009091670298239093670208951092670277
:1030E000089580914602089508950C947418909163
:1030F0004602981721F0809346020C9475180895A3
:1031000080914602882329F01092460280E00C94B8
:1031100075180895E0911001F091110180916902F4
:103120008083E0911001F0911101808190916802FB
:10313000892B8083E0911001F091110180819091A1
:103140006702892B808390914602992381F0E09158
:103150001001F09111018081892B808380911001F1
:10316000909111010E94911981110E948018809103
:103170001001909111010C948A0E08950C94BD18C1
:1031800098E0899F90011124622B609345020E9470
:10319000B916809145028595859585950C94BE1844
:1031A0001092450280E00C94BE18909145028095E3
:1031B000892380934502282F277071F4282F082E29
:1031C000000C330B9217130639F08595859585957C
:1031D0000E94DA160C94D018089590E080E00E94C6
:1031E000552221E08C3E9E4F09F020E0822F089569
:1031F00082E090E00C94472283E090E00C94472218
:10320000CF9384E090E00E944722C82F81E290E0B3
:103210000E944722982F8C2FCF910895CF93C92FCA
:10322000682F84E090E00E945B226C2F81E290E0A6
:10323000CF910C945B22AB01BC018FE090E00C9429
:103240006D22AB01BC0183E190E00C946D2260E043
:1032500070E0CB010C94211960E070E0CB010E947A
:103260001B190C9427196CEE7EEF90E080E00E9411
:10327000792260E082E090E00E945B2260E083E0DF
:1032800090E00E945B221092410210924202109242
:1032900043021092440260E084E090E00E945B22CE
:1032A00060E081E290E00E945B2260E085E090E0D7
:1032B0000E945B2260E086E090E00E945B226FEF5C
:1032C00087E090E00E945B2240E050E0BA0188E095
:1032D00090E00E946D2260E08DE090E00E945B2211
:1032E00040E050E0BA0188E190E00E946D2260E089
:1032F00087E190E00E945B2240E050E0BA018CE15F
:1033000090E00E946D2260E080E290E00E945B22EB
:103310000C942C190C943319682F8EE090E00C94C7
:103320005B22FC01329680911C01882321F0809160
:103330006D039EE187FF96E080E0915008F40895C8
:1033400021912223D1F38F5FF8CF662301F12091E1
:103350001C012223F1F020916D0327FF1AC0462F94
:103360004695469546954E3190F4677021E030E0E1
:1033700002C0220F331F6A95E2F7840F911DFC01F2
:10338000828190E02823392381E0232B69F480E0B7
:103390000895FC01329608962191261721F0E8172E
:1033A000F907D1F7F4CF81E008959C01FC01329632
:1033B0009FEF80E04191461751F09F3F19F4411172
:1033C00001C0982F8F5F8630A9F79F3F09F40895B9
:1033D000290F311D97FD3A95F90162830895FC018B
:1033E000329608962191261303C0DF0111971C9293
:1033F000E817F907B9F70895E62FE695E695E695FB
:10340000EE3168F4E80FF92FF11D677021E030E02C
:1034100001C0220F6A95EAF78281822B8283089588
:10342000E62FE695E695E695EE3170F4E80FF92F74
:10343000F11D677021E030E001C0220F6A95EAF7C4
:103440002095828128232283089520911C01222324
:1034500029F020916D0327FD0C94FC190C94D519CB
:1034600020911C01222329F020916D0327FD0C944B
:10347000101A0C94EF19FC01329680911C018823DC
:1034800051F080916D0387FF06C08EE1DF011D9230
:103490008A95E9F7089586E0F9CF089508950C9488
:1034A0004E1A0E944F1A80917303843009F439C078
:1034B00010926B0288E190E020E40FB6F894A89592
:1034C000809360000FBE2093600080E00E948E0316
:1034D0000E94330B80916C0281110AC081E08093BD
:1034E0006C028091A402817080936D020E94660A32
:1034F0000E944F1A83B7817F846083BF83B7816046
:1035000083BF7894889583B78E7F83BF0FB6F89476
:10351000A89580916000886180936000109260009F
:103520000FBE08950895CF930E944D1A0E946A0617
:103530000E94921AC0E08C2F0E94F405892B31F46E
:10354000CF5FC530C1F780E0CF91089581E0FCCF17
:1035500008950C94A81A0E94BC120E947E0E0E942C
:103560008E0310926C0280916D0281110E942B0BD0
:103570000E94780A0C94A91A1F921FB61F92112458
:103580008F939F93AF93BF9380916B02811113C070
:103590008091690390916A03A0916B03B0916C03D1
:1035A0004196A11DB11D8093690390936A03A09376
:1035B0006B03B0936C03BF91AF919F918F911F905C
:1035C0001FBE1F90189582E084BD93E095BD9AEFD1
:1035D00097BD80936E0008952FB7F894809169038A
:1035E00090916A03A0916B03B0916C032FBF089573
:1035F0009C014FB7F8948091690390916A03A09160
:103600006B03B0916C034FBF821B930B08957894AA
:103610001F921FB61F9211248F939F93AF93BF9356
:103620008091690390916A03A0916B03B0916C0340
:103630000196A11DB11D8093690390936A03A09325
:103640006B03B0936C03BF91AF919F918F911F90CB
:103650001FBE1F90189581E08093E00080E2809368
:10366000D8001092C9008FE19EE40197F1F700C0E5
:10367000000087E090EBDC0180937C0390937D0356
:10368000A0937E03B0937F0388E19CE00FB6F8948B
:10369000A895809360000FBE90936000FFCF0E94BA
:1036A000ED18811102C00E948A190E94F8188093B7
:1036B0006A020E94001990936E0380936D030E942A
:1036C000FC18682F70E090E080E00E94571660912F
:1036D0003D0270913E0280913F02909140020C9415
:1036E000911680918E0208950895CF93DF9300D0B4
:1036F0000F92CDB7DEB790917303943019F589839B
:103700007B836A8382E08093E9008FEF9091E800E9
:10371000815095FD06C095ED9A95F1F70000811155
:10372000F5CF8091E80085FF0DC050E040E063E0F8
:1037300070E0CE0101960E947B1D8091E8008E779B
:103740008093E8000F900F900F90DF91CF91089534
:10375000BC0184E00C94751BBC0183E00C94751BC8
:10376000CF93DF93EC0180911C018823B1F180910C
:103770006D0387FF32C060E282E08093E9008FEF43
:103780009091E800815095FD06C095ED9A95F1F76E
:1037900000008111F5CF8091E80085FF1BC080916A
:1037A0001C0170E050E040E0811104C050E040E0B6
:1037B00068E070E0CE010E947B1D8091E8008E776A
:1037C0008093E80080E2FE01AEE6B2E001900D9247
:1037D0008A95E1F7DF91CF91089568E081E0CDCF40
:1037E00080917203811109C00E940B1F0E94681F03
:1037F0008091E20084608093E20008951092720349
:103800000895089508950C94AB1A42E061EC81E0AC
:103810000E94871E42E261EC82E00C94871E809138
:103820007503833009F45FC030F48130C1F1823018
:1038300009F49BC008958A3009F487C08B3009F4DD
:103840006DC0893009F04EC080917403813209F057
:1038500049C08091780390917903029708F042C0A3
:103860008091E800877F8093E8008091E80082FFE4
:1038700035C09091F3008091F200029729F4809175
:10388000F1008B7F813021F48091F10080938E02D2
:103890008091E8008B778093E8000C94BB1E8091A8
:1038A0007403813AF9F48091E800877F8093E800FF
:1038B0008091780390917903892B61F460E28EE620
:1038C00092E070E00E94CA1D8091E8008B7780939F
:1038D000E800089560E090E080E0F3CF809173030A
:1038E0008111C3CF089580917403813AD9F78091F3
:1038F000780390917903892BA9F78091E800877F5D
:103900008093E8008091E80080FFFCCF80911C014B
:103910008093F1008091E8008E77BDCF8091740391
:10392000813201F78091780390917903892BD1F648
:103930008091E800877F8093E8000E94BB1E809101
:10394000760380931C010C94BC1280917403813225
:1039500049F68091E800877F8093E8000E94BB1EB3
:103960008091770380938F02089580917403813A48
:1039700009F0B8CF8091E800877F8093E8008091BC
:10398000E80080FFFCCF80918F02C2CF84B7877F91
:1039900084BF0FB6F894A8958091600088618093E9
:1039A0006000109260000FBE80E890E00FB6F894BF
:1039B00080936100909361000FBE0E94DE0E0E9412
:1039C0000B1F0E94681F8091E20084608093E200D8
:1039D00078940E94F1210E94E80E82E191E00E9419
:1039E000790E80917303853019F00E94F20EF9CFA1
:1039F0000E94511A80917103882399F30E94931AAF
:103A0000882379F30E94651DECCF0C94071D292FA4
:103A100033272330310519F168F42130310509F4D9
:103A20004AC02230310509F44BC090E080E030E01C
:103A300020E028C02132310579F122323105A9F781
:103A400080E490E027E835E061157105D9F08DE656
:103A500090E02AE135E061307105A1F0E6CF9927C9
:103A60008130910599F0009741F08230910589F0FD
:103A70000397D9F6EDE7F4E002C0E9ECF4E08491B5
:103A800090E09F01FA01318320830895E5EBF4E093
:103A9000F6CFE3E8F4E0F3CF89E090E02FED34E0F7
:103AA0006115710579F389E090E028EF34E0613029
:103AB000710541F3BACF82E190E028E035E0E2CF32
:103AC0008BE390E02DEC34E0DDCF80E189BD82E135
:103AD00089BD09B400FEFDCF8091D8008F7D809311
:103AE000D8008091E00082608093E0008091E00047
:103AF00081FDFCCF0895AF92BF92CF92DF92FF92EB
:103B00000F931F93CF93DF936C01EB018A010E9407
:103B1000DA1EF82E811123C00115110539F0F801C4
:103B200080819181C81BD90BC80ED91EB12CA12C44
:103B30002097A9F08091E80085FD22C08091E800DF
:103B40008E778093E80001151105A1F0F8018081BE
:103B50009181A80EB91EB182A08285E0F82E8F2D2A
:103B6000DF91CF911F910F91FF90DF90CF90BF9089
:103B7000AF9008950E94DA1E8823D1F2F82EEFCF7D
:103B8000F60181916F018093F1002197FFEFAF1A49
:103B9000BF0ACECFFC0180917A0390917B038617F8
:103BA0009707A0F06115710529F49091E8009E77C0
:103BB0009093E80090E06115710551F4911108C0EF
:103BC0008091E80082FF34C080E00895BC01F2CF0C
:103BD000809173038823C1F18530C1F18091E800A1
:103BE00083FD30C08091E80082FDEACF8091E8003B
:103BF00080FFE1CF8091F3002091F200382F611512
:103C0000710519F02830310558F091E02830310560
:103C100009F090E02091E8002E772093E800CBCFC8
:103C200081918093F100615071092F5F3F4FE7CF81
:103C300080917303882341F0853041F08091E80042
:103C400083FFBECF81E0089582E0089583E0089568
:103C5000FC0180917A0390917B0386179707A0F06F
:103C60006115710529F48091E8008E778093E80052
:103C700090E06115710551F4911108C08091E80040
:103C800082FF35C080E00895BC01F2CF80917303BC
:103C90008823C9F18530C9F18091E80083FD31C0E6
:103CA0008091E80082FDEACF8091E80080FFE1CFBB
:103CB0008091F3002091F200382F6115710519F001
:103CC0002830310558F091E02830310509F090E0B6
:103CD0008091E8008E778093E800CBCF8491809329
:103CE000F1003196615071092F5F3F4FE6CF80910F
:103CF0007303882341F0853041F08091E80083FF11
:103D0000BDCF81E0089582E0089583E00895982F63
:103D1000973028F08F708093E90081E008959093A8
:103D2000E900242F762F50E0981731F07091EC00C5
:103D30002091ED005091F00021FD02C09F5FE8CF7F
:103D40003091EB003E7F3093EB003091ED003D7FF2
:103D50003093ED003091EB0031603093EB007093C5
:103D6000EC002093ED005093F0002091EE0027FD31
:103D7000E5CF80E008958091740387FF13C08091A0
:103D8000E80082FF06C08091E8008B778093E8000E
:103D900004C0809173038111F2CF08958091730361
:103DA0008823D9F38091E80080FFF8CF8091E80064
:103DB0008E77ECCF2091E4003091E50095E6A901E3
:103DC0002091EC00822F817020FF06C08091E800D6
:103DD00080FF06C080E008952091E80022FD1AC00F
:103DE00080917303882389F0853089F08091EB00FE
:103DF00085FD0FC02091E4003091E5004217530784
:103E0000F9F29150E1F684E0089582E0089583E0AC
:103E1000089581E008950E94791F0E94811FE0EEBD
:103E2000F0E0808181608083E8EDF0E080818F7731
:103E3000808319BCA7EDB0E08C918E7F8C9380813C
:103E40008F7E80831092720308950F931F93CF93F8
:103E5000DF930E94791F0E94811FC8EDD0E0888106
:103E60008F77888388818068888388818F7D888325
:103E700019BC1092730310926F0310927103109289
:103E8000700300EE10E0F80180818B7F80838881D1
:103E90008160888342E060E080E00E94871EE1EE5E
:103EA000F0E080818E7F8083E2EEF0E080818160AF
:103EB0008083808188608083F80180818E7F808309
:103EC000888180618883DF91CF911F910F91089540
:103ED000E8EDF0E080818F7E8083E7EDF0E0808187
:103EE0008160808384E082BF81E0809372030C94C0
:103EF000251FE8EDF0E080818E7F80831092E20044
:103F000008951092DA001092E10008951F920F9226
:103F10000FB60F9211242F933F934F935F936F939C
:103F20007F938F939F93AF93BF93EF93FF93809172
:103F3000E10082FF0BC08091E20082FF07C0809108
:103F4000E1008B7F8093E1000E94F0218091DA00F4
:103F500080FF19C08091D80080FF15C08091DA00E1
:103F60008E7F8093DA008091D90080FF96C080E137
:103F700089BD82E189BD09B400FEFDCF81E0809357
:103F800073030E94F01B8091E10080FF19C08091B3
:103F9000E20080FF15C08091E2008E7F8093E200F6
:103FA0008091E20080618093E2008091D80080627D
:103FB0008093D80019BC85E0809373030E94021C93
:103FC0008091E10084FF2BC08091E20084FF27C034
:103FD00080E189BD82E189BD89B5982F917080FF0C
:103FE000FBCF8091D8008F7D8093D8008091E10035
:103FF0008F7E8093E1008091E2008F7E8093E200CB
:104000008091E20081608093E20080916F038823B9
:1040100009F449C084E0809373030E94031C8091DB
:10402000E10083FF29C08091E20083FF25C08091D9
:10403000E100877F8093E10082E080937303109218
:104040006F038091E1008E7F8093E1008091E20018
:104050008E7F8093E2008091E20080618093E20095
:1040600042E060E080E00E94871E8091F00088605E
:104070008093F0000E94011CFF91EF91BF91AF91DE
:104080009F918F917F916F915F914F913F912F9170
:104090000F900FBE0F901F90189519BC10927303CC
:1040A0000E94FE1B70CF8091E30087FD93E0909308
:1040B0007303B3CF1F920F920FB60F9211242F9359
:1040C0003F934F935F936F937F938F939F93AF93A0
:1040D000BF93CF93DF93EF93FF93D091E900DF700D
:1040E0008091EC00C82FC17080FDC0E81092E900FB
:1040F0008091F000877F8093F00078940E949E204A
:104100001092E9008091F00088608093F000CD2B40
:10411000CF70C093E900FF91EF91DF91CF91BF91F4
:10412000AF919F918F917F916F915F914F913F914F
:104130002F910F900FBE0F901F9018951F93CF9344
:10414000DF93CDB7DEB7AA970FB6F894DEBF0FBEE8
:10415000CDBF84E793E02091F100FC012193CF01D2
:10416000F3E08C379F07B9F70E940F1C8091E8009D
:1041700083FF1EC180917403909175039A3008F0FB
:1041800017C1E92FF0E0ED53FD4D0C943422803837
:1041900099F0823809F00CC1809178038F708730D4
:1041A00008F006C18093E9008091EB0085FB882729
:1041B00080F91092E90006C080917003909171031C
:1041C000911182609091E800977F9093E80080932E
:1041D000F1001092F1008091E8008E77E5C088230D
:1041E00009F4D3C0823009F0E3C0809176038111D5
:1041F000D6C0809178038F702FEF280F263008F0FB
:10420000D7C08093E9002091EB0020FFC8C0933015
:1042100031F48091EB0080628093EB00C0C09091FC
:10422000EB0090619093EB0021E030E001C0220FA1
:104230008A95EAF72093EA001092EA008091EB0059
:104240008860EACF8111B4C0109176031F77809106
:10425000E3008078812B8093E3008091E800877FE2
:104260008093E8000E94BB1E8091E80080FFFCCF95
:104270008091E30080688093E30082E0111183E085
:104280008093730395C08058823008F091C080916C
:104290007603909177038C3D23E09207A1F583E0AC
:1042A0008A838AE289834FB7F894DE01139620E06F
:1042B0003EE051E2E32FF0E050935700E49120FFFD
:1042C00003C0E295EF703F5FEF708E2F90E0EA3011
:1042D000C0F0C7968D939D932F5F243159F74FBF40
:1042E0008091E800877F8093E8006AE270E0CE0169
:1042F00001960E94CA1D8091E8008B778093E800A8
:1043000057C0C096E7CF6091780370917903AE01F2
:104310004F5F5F4F0E94051DBC01892B09F448C007
:104320009091E800977F9093E80089819A810E949C
:10433000281EE1CF8038E1F58091E800877F8093E7
:10434000E80080916F038093F10045CF811130C068
:1043500090917603923060F58091E800877F80939A
:10436000E80090936F030E94BB1E80916F03882327
:1043700011F084E005C08091E30087FDFACF81E071
:10438000809373030E94051C13C0809176038130D3
:1043900079F481E0933009F080E08093710310920A
:1043A000E9008091E800877F8093E8000E94BB1EAF
:1043B0008091E80083FF0AC08091E800877F8093A6
:1043C000E8008091EB0080628093EB00AA960FB624
:1043D000F894DEBF0FBECDBFDF91CF911F9108953E
:1043E0000895CF93809173038823A1F0C091E900D1
:1043F000CF709091EC00892F817090FD80E8C82BE0
:104400001092E9008091E80083FD0E949E20CF7009
:10441000C093E900CF910895AA1BBB1B51E107C0CF
:10442000AA1FBB1FA617B70710F0A61BB70B881F44
:10443000991F5A95A9F780959095BC01CD010895D3
:1044400097FB072E16F4009407D077FD09D00E9441
:104450000C2207FC05D03EF4909581959F4F08955E
:10446000709561957F4F0895EE0FFF1F0590F491B1
:10447000E02D0994FC014150504030F001900616A7
:10448000D1F73197CF010895882799270895F99991
:10449000FECF92BD81BDF89A992780B50895A6E117
:1044A000B0E044E050E00C948122A8E1B0E042E0AA
:1044B00050E00C948122262FF999FECF92BD81BD48
:1044C000F89A019700B4021639F01FBA20BD0FB652
:1044D000F894FA9AF99A0FBE08950396272F0E942E
:1044E0005C220E945B22252F0E945C22242F0C94C8
:1044F0005C220196272F0E945C220C945B22DC0137
:10450000CB01FC01F999FECF06C0F2BDE1BDF89ADE
:10451000319600B40D9241505040B8F70895F89488
:10452000FFCFD30BDB0BE20BE70BEC0BF10BF60B26
:10453000FB0B000C050C0A0C0F0C130CD50B180C04
:104540001B0CD50BD50B1E0CD50B94109410EC1036
:10455000EC103E11C110C110C1105A11E611F51135
:10456000F5115112C110C1105A12CB12CB12D41234
:10457000D412D612D412D412D412CB12CB12DB1214
:10458000D412D412DB12C720EF20D821EF20D8217B
:0A45900022214321D8219A21A621FF
:10459A0000400040400112131415161718191A1B6F
:1045AA004702711BB01B741BAC1BA81B01E200E97C
:1045BA0000EA00B500B600B700CD008301CC008A3E
:1045CA0001920194012102230224022502260227D4
:1045DA00022A02B300B4006F007000818283F7F6EA
:1045EA00F1F531C6943791929034366667F4F03219
:1045FA0033950001020202020606060606060C0CA4
:10460A000C0C0C0C12121212121212121212E200DA
:10461A00E900EA00B500B600B700CD008301CC007E
:10462A008A01920194012102230224022502260210
:10463A0027022A02B300B4006F007000818283004F
:00000001FF
