:100000000C94DB020C9422030C9422030C94220324
:100010000C9422030C9422030C9422030C942203CC
:100020000C9422030C9422030C9409200C94DD20E0
:100030000C943F1B0C9422030C9422030C94220377
:100040000C9422030C9422030C9422030C9422039C
:100050000C9422030C948A1B0C9422030C9422030C
:100060000C9422030C9422030C9422030C9422037C
:100070000C9422030C9422030C9422030C9422036C
:100080000C9422030C9422030C9422030C9422035C
:100090000C9422030C9422030C9422030C9422034C
:1000A0000C9422030C9422030C94220329001E00BA
:1000B0001F0020002100220023002400250026002C
:1000C00027002D002E0000002A002B000000140045
:1000D0001A000800150017001C0018000C00120080
:1000E00013002F003000310039000000040016001A
:1000F000070009000A000B000D000E000F0033007E
:100100003400280000000000E1001D001B00060074
:1001100019000500110010003600370038004A00B1
:1001200052004D00E000E3000000E200000000008B
:100130002C0000000000000002510151500051004D
:100140004F0035003A003B003C003D003E003F00C0
:1001500040004100420043004400450000004C00C4
:10016000000000000000000000000000000000008F
:100170000000490000004600470048000000000061
:10018000000000000000000000000000000000006F
:10019000000000000000000000000000000000005F
:1001A000000000000000000000000000000000004F
:1001B000000000004B0000004E00000000000000A6
:1001C000000000000000000000000000000000002F
:1001D00000000000000000000000C25CCD5CCE5CAE
:1001E000D45CD35CD05CD15C000000000000000057
:1001F00000000000000000000000000000000000FF
:100200000000000000000000000000000000C65CCC
:10021000C55C000000000000A900AA00A8000000C2
:1002200000000000000000000000C85CC75C000087
:1002300000000000000000000000000000000000BE
:10024000000000000000CA5CC95C00000000000063
:10025000000000000000000000000000000000009E
:1002600000000000000000000000000000006432F8
:10027000146432141E140A052223252628292A2C48
:100280002D2F3032333536383A3B3D3E40424345E0
:1002900047494A4C4E5051535557595A5C5E60621B
:1002A000646668696B6D6F71737577797B7D7F812B
:1002B000838587898A8C8E90929496989A9C9E9F2B
:1002C000A1A3A5A7A8AAACAEAFB1B3B4B6B8B9BB49
:1002D000BCBEBFC1C2C3C5C6C7C9CACBCCCDCED0B8
:1002E000D1D2D2D3D4D5D6D7D7D8D9D9DADADBDBA5
:1002F000DBDCDCDCDCDCDDDDDDDDDCDCDCDCDCDB3C
:10030000DBDBDADAD9D9D8D7D7D6D5D4D3D2D2D184
:10031000D0CECDCCCBCAC9C7C6C5C3C2C1BFBEBC77
:10032000BBB9B8B6B4B3B1AFAEACAAA8A7A5A3A1E8
:100330009F9E9C9A98969492908E8C8A89878583AA
:10034000817F7D7B79777573716F6D6B696866648A
:1003500062605E5C5A5957555351504E4C4A49475A
:10036000454342403E3D3B3A3836353332302F2DFF
:100370002C2A292826252322FFAA7F554000010187
:100380000101010101010102020202020202020254
:100390000303030303030303040404040404040524
:1003A00005050505060606060607070707070808E8
:1003B0000808090909090A0A0A0B0B0B0C0C0C0D99
:1003C0000D0D0E0E0E0F0F0F101011111112121332
:1003D000131414151516161717181819191A1A1BAD
:1003E0001B1C1D1D1E1E1F2020212222232424250C
:1003F0002626272829292A2B2C2D2D2E2F30313245
:1004000032333435363738393A3B3C3D3E3F404154
:1004100042434445464748494A4C4D4E4F5051533C
:1004200054555658595A5B5D5E5F616264656668F3
:10043000696B6C6D6F7072737577787A7B7D7E8077
:1004400082838587888A8C8E8F91939596989A9CC3
:100450009EA0A2A3A5A7A9ABADAFB1B3B5B7BABCD7
:10046000BEC0C2C4C6C9CBCDCFD1D4D6D8DBDDDFA8
:10047000E2E4E7E9EBEEF0F3F5F8FAFDFF04033010
:100480000000001E034C006F006E0067006E0061EC
:10049000006C006400200043006F00720069006E71
:1004A00000000012034C006F006E0067006E0061D8
:1004B000006C00640000000403090409023B000210
:1004C0000100A0FA09040000010301010009211143
:1004D0000100012240000705810308000A09040108
:1004E000000103000000092111010001226D000735
:1004F00005820320000A1201100100000008335693
:10050000241001000102030105010980A1018503F6
:1005100019012AB700150126B70095017510810051
:10052000C0050C0901A101850419012AA0021501C9
:1005300026A002950175108100C005010906A101E0
:100540008505050719E029E71500250195087501BE
:1005500081020507190029EF1500250195F07501A5
:10056000810205081901290595057501910295017A
:1005700075039101C005010906A101050719E029CC
:10058000E71500250195087501810295017508811F
:10059000010507190029FF150026FF0095067508BB
:1005A000810005081901290595057501910295013C
:1005B00075039101C00011241FBECFEFDAE0DEBF4A
:1005C000CDBF04B603FE27C080917E0390917F03C8
:1005D000A0918003B09181038730904BA740B04B2E
:1005E000D1F410927E0310927F0310928003109238
:1005F000810314BE84B7877F84BF0FB6F894A89593
:1006000080916000886180936000109260000FBE4E
:10061000E0E0F8E3099511E0A0E0B1E0E6E4F7E4FA
:1006200002C005900D92A23BB107D9F723E0A2EBDF
:10063000B1E001C01D92AE37B207E1F70E94491D3B
:100640000C9465230C94000081E0089581E00895E6
:100650000C94260308950C942A031F93CF93DF93E1
:1006600000D000D00F92CDB7DEB749835A836B8399
:100670003091D40189819A8131111DC06623B9F06E
:100680002223A9F00E942C18182F682F89819A81A3
:100690000E94D81769817A81812F0F900F900F9057
:1006A0000F900F90DF91CF911F910C94E3030E9464
:1006B0000418182FEFCF0E942C1869817A81EDCF92
:1006C000FC01262F408151816281738184810C94C9
:1006D0002D03CF93DF93EC0160E00E946003BE0125
:1006E000DF91CF910C942B030E947019811102C0ED
:1006F0000E940D1A0C94E6050C94E90508950C94DB
:100700007E0381E008950C948103CF93C82F0E944B
:100710007F038C2FCF910C94830308950E943F1385
:100720000E948D032FEF84E39CE021508040904095
:10073000E1F700C000000C94AE1B0F931F93CF9302
:10074000DF93EC0161E00E9460038C01BE010E9416
:100750002803882359F1BE01C8010E945D0D88233A
:1007600029F1BE01C8010E94AF0D8823F9F0BE0136
:10077000C8010E94D20E8823C9F0BE01C8010E94A0
:100780003E0C882399F08A81882339F001158CE585
:10079000180751F00E3D1C4579F0CE01DF91CF9145
:1007A0001F910F910C9424030E948E0380E0DF912F
:1007B000CF911F910F9108950E940D1AF7CF90E0ED
:1007C00080E008950895972F70E02FE0929F600DCC
:1007D000711D1124FB019BE4899FE00DF11D112483
:1007E000EE0FFF1FE455FF4F859194910895FC0192
:1007F000EE0FFF1FE259FD4F859194910895CF931D
:10080000DF930E94E3030E940B05EC01811520E5B4
:10081000920708F041C0811530E4930708F0B4C096
:10082000803E910518F5803C910508F09DC0883AFE
:10083000910570F4853A910508F08EC081309105DC
:10084000F9F00097E9F00497D8F4D0E0C0E018C0C0
:100850008F3B9105D0F7C85AD0E0CC0FDD1FC25EA8
:10086000DE4F0990D881C02DD4640AC08115904212
:1008700058F4C11581E0D80718F4C83ED10528F70F
:10088000CE01DF91CF910895C11590E3D90708F00B
:1008900071C0CE019F706AC0811525E5920758F599
:1008A000811534E5930708F09EC0811542E5940751
:1008B00050F4C11581E5D80708F469C0DC2FCC27B6
:1008C000C16FD06ADDCF982F969596959E012370C3
:1008D0003327C115D34508F077C0C1E0D0E002C08E
:1008E000CC0FDD1F2A95E2F720E2929FC001112470
:1008F000C82BD92B67C0C11589E5D807A8F4C11545
:1009000098E5D90708F074C0C11526E5D20708F0AC
:100910009CCF8C2F0E94A205C82FD0E0DC2FCC27C3
:10092000CC27DF71D062ACCFC1153AE5D30708F40C
:1009300064C0CE0190568115904208F086CF8D2F6D
:100940008F710E94A20590E0982F882788279F71B9
:100950009C012C2BE901E6CFC55AD0E0C45BDE4FE9
:10096000C881D0E0D0648CCF805C91090E94F703ED
:10097000EC0186CFCE019927D3FF03C0EC01D86CE0
:100980007FCFEC01D06C7CCFDF70D06A79CFCE0105
:10099000E4E096958795EA95E1F783702C2F2695EC
:1009A0002695237090E2299F90011124382B8C2FDB
:1009B0008370C1E0D0E002C0CC0FDD1F8A95E2F762
:1009C000C22BD32BDC685CCFC1E0D0E002C0CC0FDF
:1009D000DD1F2A95E2F730E2939FC0011124C82B56
:1009E000D92BDA684DCFD82FCC27C46FD06A48CF27
:1009F000DC2FCC27C06FD06A43CF8C2F8F700E9422
:100A0000A20534E0D695C7953A95E1F7CF709C2FB3
:100A1000EC01D06935CF82389105B1F1B0F4813362
:100A2000910509F475C048F48932910509F469C04B
:100A30008A32910509F473C008958533910509F44C
:100A400059C08933910501F10895833E9105A9F1BB
:100A500038F4803E9105F9F0823E910549F1089500
:100A6000863E9105A9F1873E9105C9F1843E910525
:100A700019F52091700321FF1FC080916F0384FD41
:100A800014C087EE90E0089520916F032370A1F0C9
:100A900080EE90E0089520916F0320FD47C03091D3
:100AA000700330FF09C024FF44C090E080E004C020
:100AB00020916F0322FDF7CF089520916F0322FD4F
:100AC0003BC03091700330FDE3CF24FFF5CFEDCF75
:100AD00020916F0323FFF0CF24FDE7CFD2CF2091E9
:100AE0006F0323FD2CC03091700331FFEECF84EEF5
:100AF00090E0089520916F0325FFDECF89E290E01A
:100B0000089520916F0325FFD7CF85E390E00895E6
:100B100020916F0326FFD0CF8AE290E008952091C4
:100B20006F0326FFC9CF81E390E0089589E390E049
:100B3000089583EE90E0089582EE90E0089586EEA9
:100B400090E0089590916F0392FF06C0282F2871BE
:100B50002830F9F4877F846093FF06C0282F28711E
:100B60002831F1F4877E84612091700320FF06C054
:100B7000382F38713830D9F4877F816021FF06C063
:100B8000282F28712831D1F4877E816194FD877EDA
:100B90000895282F24712430F9F68B7F8860DCCFEC
:100BA000282F2471243101F78B7E8861DDCF382F07
:100BB0003171313019F78E7F8860E0CF282F217195
:100BC000213121F78E7E8861E1CF08950C94E505EF
:100BD00008950C94E805E82FF0E0EE0FFF1FE456AF
:100BE000FD4F808191810895089580EA8A95F1F7FB
:100BF0000895CF93DF93AEE5B1E043E651E0C1E065
:100C0000D0E08D91E82FE295EF70F0E061A18F7058
:100C10009E0101C0220F8A95EAF7922F90959623A4
:100C200091A382A1822B82A34A175B0751F7AFE4FD
:100C3000B1E061E070E08D91E82FE295EF70F0E0B7
:100C400041A18F709B0101C0220F8A95EAF7922F74
:100C50009095942391A382A1822B82A381E0AE354B
:100C6000B80749F7109293021092920210929D02D7
:100C700010929C02109295021092940210929F0280
:100C800010929E0210929702109296021092A10268
:100C90001092A00210929902109298021092A30250
:100CA0001092A20210929B0210929A021092A50238
:100CB0001092A40285E00E94E806DF91CF910C9487
:100CC00074038F929F92AF92BF92CF92DF92EF9276
:100CD000FF920F931F93CF93DF938EE5E82E81E071
:100CE000F82E02E912E0912CAA24A394B12CF7016A
:100CF00081917F01C82FC295CF70D0E099A18F70EC
:100D0000650101C0CC0C8A95EAF7892F8C2989A34B
:100D10008AA18C2C809488218AA30E94F505EFE497
:100D2000F1E050E040E030E020E06191A62FA29594
:100D3000AF70B0E090968C9190E06F7002C0959586
:100D400087956A95E2F780FD3EC0C501042E02C07A
:100D5000880F991F0A94E2F7282B392B4F5F5F4FBA
:100D60004F30510511F789A1882289A28AA1C82A8A
:100D7000CAA2F801808191812817390739F131839E
:100D8000208381E0982A0E5F1F4FF3E6EF16F1E013
:100D9000FF0609F0ACCF292D45E06CE972E082E94D
:100DA00092E00E94E9060E947C03892DDF91CF9199
:100DB0001F910F91FF90EF90DF90CF90BF90AF9079
:100DC0009F908F90089590E080E0C6CF80E0DACFCA
:100DD0000895FF920F931F93CF93DF93F82E092F5F
:100DE000162FD72FC42F222349F081E08093B4011E
:100DF0000E946F1B9093B3018093B2018091B40164
:100E00008823A1F08091B2019091B3010E947B1BD5
:100E1000069760F0EF2DF02FA12FBD2F90E080E01E
:100E2000D0E08C179D0744F01092B401DF91CF9170
:100E30001F910F91FF900895219131912D933D9332
:100E40000196EFCFEF92FF920F931F93CF93DF9313
:100E5000EB01E82FD11110C0442321F0F0E0E3585A
:100E6000FC4FE4916E2F7E2F8E2FDF91CF911F913B
:100E70000F91FF90EF9008950D2F10E0282F30E094
:100E8000442329F023583C4FF901249130E0F6E047
:100E9000CF9FC0011124EFEFF0E0BF010E948F222D
:100EA000AB018C2F90E0880F991FA5E5A49FB0019E
:100EB000A59F700D1124861B970B982F990F980FE3
:100EC000BF01601B710B629FD001639FB00D729FC9
:100ED000B00D11248B2F9D9FB0011124672F772710
:100EE000EF01C61BD70BBE01629FE001639FD00DCF
:100EF000729FD00D11247F01E91AF108E09EB00124
:100F0000E19E700DF09E700D1124672F7727E61B70
:100F1000F70BE29F8001E39F100DF29F100D11244B
:100F2000E12F722F4230510599F048F441155105D7
:100F300069F04130510581F0EB2F8D2F07C044300F
:100F4000510569F080F046305105B1F76E2F8DCF15
:100F5000E22F7B2F812FFACFE22F7D2FF7CFEB2FC0
:100F6000822F712FF3CF7B2F822FED2FEFCF41E018
:100F70000C9422070895CF93DF93762FE901682F11
:100F8000842F0E94B707798368838A83DF91CF918A
:100F900008958091A602982F9E7F29F48170826027
:100FA0008093A60208958A33E8F381708863F8CFAE
:100FB00088E090E00C942523CF92DF92EF92FF928D
:100FC0006B017C010E94C907B701A60188E090E08F
:100FD000FF90EF90DF90CF900C944323E6EAF2E08D
:100FE00083E0808311828FEF828383831482608108
:100FF0007181828193810C94DC078091A60280FF2D
:1010000002C08695089580E008959091AA029330D9
:1010100018F49F5F9093AA02882351F06091A60272
:101020007091A7028091A8029091A9020C94DC070C
:10103000089581E00C9405089091AA02992319F073
:1010400091509093AA02882351F06091A60270916A
:10105000A7028091A8029091A9020C94DC07089540
:1010600081E00C941C0870E00C94A60C60910201C5
:101070008091A60280FF0AC08091010123E0829F37
:10108000C001112485559D4F0C94330880910301B4
:101090009091040123E0829FF0011124E555FD4F5A
:1010A000891750F71182108212828F5F3396F8CF22
:1010B0009091A60290FF14C0909103012091040129
:1010C00033E0939FF0011124E555FD4F921710F086
:1010D0000C9436088183608342839F5F3396F6CFFA
:1010E0000895CF93DF9300D00F92CDB7DEB79091E4
:1010F000A60290FF0AC09E012F5F3F4F0E94BB07D0
:101100004B8169818A810E9458080F900F900F903F
:10111000DF91CF910895CF93DF93EC01EC81F0E064
:10112000E858FD4F4491E6EAF2E0628181810E9435
:1011300071088C818F5F8C83DF91CF910895AF927E
:10114000BF92CF92DF92EF92FF920F931F93CF93B4
:10115000DF9300D00F92CDB7DEB7182FF62E042FF5
:10116000E22E8091A60280FF29C0E82FE695AE2FDF
:10117000B0E0AD59BE4F9C919093BD018E7F8230FF
:1011800059F59E012F5F3F4F812F0E94BB074B8176
:1011900069818A810E9458081093A702F092A802E0
:1011A0000093A902EE2051F06091A6027091A7026F
:1011B0008091A8029091A9020E94DC070F900F90E5
:1011C0000F90DF91CF911F910F91FF90EF90DF90E3
:1011D000CF90BF90AF900895923019F40091A9027A
:1011E000DBCF963019F41091A702D6CF9331A1F638
:1011F000E3518E2F8170D82EE695F0E0E858FC4F31
:10120000A590B490C12CBB2460910501C61618F0BE
:101210000E943608C1CF2C2D30E0A29EC001A39EB3
:10122000900DB29E900D112470E00E948F22812FAC
:10123000D11013C0860F40910301420F532F511D4F
:101240009A01220F331F240F351F25553D4F402F84
:101250006F2D0E94BB07C394D7CF861BECCFE6EA65
:10126000F2E09181282F4381628188E0890F0C94FC
:101270009F0881E00C942F09E6EAF2E09181282F83
:101280004381628188EF890F0C949F0881E00C9460
:101290003C09E6EAF2E0628128E0620F08F46FEFB1
:1012A000282F438181810C949F0881E00C94490987
:1012B000E6EAF2E0628128E0621B08F460E0282F91
:1012C000438181810C949F0881E00C945809E6EADF
:1012D000F2E0438128E0420F08F44FEF282F6281AB
:1012E00081810C949F0881E00C946709E6EAF2E0A2
:1012F000438128E0421B08F440E0282F628181816D
:101300000C949F0881E00C94760920E00C949F08CF
:10131000EF92FF921F93CF93DF93EC0110E0EE2446
:10132000EA94F12C60910501161770F00E943608BE
:101330009A818C8190FF27C08F5F8C83DF91CF9142
:101340001F91FF90EF90089520910301422F410FCC
:101350005527551FCA019A01220F331F280F391F25
:1013600025553D4F70E0C7010E94A322962F8C8126
:101370004091A9026091A802199F800D11240E943A
:10138000BB071F5FCFCF8150D8CFBF92CF92DF92E4
:10139000EF92FF920F931F93CF93DF93FC01828113
:1013A0000FEF80FF01E010E0809105011817C0F0F9
:1013B0000E9436088091B501013009F051C08111B9
:1013C00002C08091050181508093B501DF91CF91DA
:1013D0001F910F91FF90EF90DF90CF90BF900895F5
:1013E000C0910301C12ED12CCC0DDD2DD11DCE011C
:1013F000880F991FC80FD91FC555DD4F1982188254
:101400001A8234E0E32EF12CB12C8091B5018B0DC2
:10141000813404F18F73082E000C990BC816D9067D
:1014200091F48091A9028E9DA0018F9D500D1124F1
:1014300055954795559547959E016091A8028091D5
:10144000A7020E94BB07B00EF1E0EF1AF108E9F61F
:101450001F5FAACF87FFDFCF90910501890FDBCFF8
:1014600090E001966091050170E00E94A322ACCF4C
:101470008F929F92AF92BF92CF92DF92EF92FF92A4
:101480000F931F93CF93DF93EC014C81042F10E057
:101490009801D8010E94E7229B01AC010E94FD2225
:1014A0004B015C01E0E2F0E0E01BF10BA5E5B0E0F0
:1014B000AC019B010E94FD226B017C019F01DF01B9
:1014C0000E94DF229B01AC010E9408239B01AC011A
:1014D000280D391D4A1D5B1DC701B6010E94B722A8
:1014E000F22E822F90E039E23F1560F143E0249F15
:1014F0009001112435952795122F109500E085E570
:10150000E82EEF1880910501081758F10E9436085F
:101510009C8181E0992319F0903219F48FEF809328
:10152000000180910001890F8C83DF91CF911F9181
:101530000F91FF90EF90DF90CF90BF90AF909F9072
:101540008F90089525E530E0B901681B790B9B0168
:10155000220F331F260F371F37FFCCCF2F5F3F4F90
:10156000C9CF8E2D01FD8F2D20910301622F600FB9
:101570007727771F9B01220F331F260F371F255513
:101580003D4F412F6091A8020E94BB070F5FBACF69
:10159000E6EAF2E080818E7F8083608171818281C2
:1015A00093810E94DC071092BE012FEF80E792E04A
:1015B000215080409040E1F700C000000C943608B4
:1015C000E6EAF2E080818E7F80831092BE012FEFE9
:1015D00080E792E0215080409040E1F700C0000099
:1015E0000C9436086091A602669570E04BE050E0DE
:1015F00086E091E00E941023892B19F481E080930A
:10160000BE010E946F1B9093B7018093B6010895AD
:101610009091A60290FF35C09170811128C0926010
:101620009093A602662351F06091A6027091A702E2
:101630008091A8029091A9020E94DC076091A60205
:10164000669570E04BE050E086E091E00E94102348
:10165000892BA1F01092BE0181E08093B9014091E5
:10166000A9026091A8028091A7020C9485098D318E
:1016700010F09863D5CF880F982BD2CF0E94F20A32
:10168000EBCF0895682F9091A602969581E0890F7F
:101690008D3108F081E00C94080B81E00C94420B32
:1016A000682F9091A60296958FEF890F09F48CE12F
:1016B0000C94080B81E00C94500B61E00C94080B27
:1016C000E6EAF2E080818160808386950C945D0B70
:1016D0008091A60280FD0C94C80A0C94600B60E017
:1016E0000C94080B8091BC0181112EC00E947019CE
:1016F000811104C00E940D1A0E94EE070E94D807B3
:101700006093A6027093A7028093A8029093A90207
:101710006E7F61F40E94EE070E94D8076093A602D4
:101720007093A7028093A8029093A9020E94C90710
:101730001092BE018091A60280FF03C086950E9490
:101740006F0B81E08093BC010895E6EAF2E08081AE
:101750008160808386950C946F0B1092BE01089572
:101760000F931F93CF93DF938091BE01882309F4D9
:1017700066C08091BD01E091A602E695E81BE0936A
:10178000B8018230C1F5F0E0EC58FD4FE491CE2F66
:10179000D0E00BE818E08091B901882389F010921D
:1017A000B9010E946F1B9E0120953095820F931FF7
:1017B0009093B7018093B6011092BB011092BA01C9
:1017C0008091B6019091B7010E947B1B8C179D07F9
:1017D000B0F1E091B601F091B701CE0FDF1FD093C9
:1017E000B701C093B60186EB91E0F801DF91CF918C
:1017F0001F910F910994863051F4E695F0E0EF586F
:10180000FD4FE491CE2FD0E008E819E0C4CF8C3032
:1018100051F4E695F0E0E259FD4FE491CE2FD0E08F
:1018200005EC19E0B8CFC8E2D0E008E31AE0823155
:1018300009F4B1CFC0EDD7E00AEB17E0ACCFDF91F0
:10184000CF911F910F910895FA01811101C0FB0101
:101850000994CF93DF93C82FD62F0E94FD078C17D2
:1018600040F00E94FD078D1720F4DF91CF910C947A
:101870004D0B8C2FDF91CF910C945D0B0F931F9329
:10188000CF938C01FB01C281CC2309F45DC00E947F
:10189000C1188272F801E25CFC45E431F10538F4CC
:1018A000E959FC4D0C94D9220E94680BC0E08C2FA2
:1018B000CF911F910F9108954AE55BE06DE47BE0C5
:1018C0000E94240CF3CF4DE45BE06AE57BE0F8CFA7
:1018D00046E459E069E379E0F3CF49E359E066E48F
:1018E00079E0EECF44E659E065E579E0E9CF45E5FA
:1018F00059E064E679E0E4CF42E859E063E779E053
:10190000DFCF43E759E062E879E0DACF40E358E01F
:1019100069E178E0D5CF49E158E060E378E0D0CFE5
:1019200081E00E945D0BC2CF65E082E00E94290C3D
:10193000BDCF6BE086E0FACF61E18CE0F7CF82E1CA
:10194000F0CF6CE183E1F2CFC1E0B1CF539A4BB15C
:10195000477F5BB15860EFB7F8949B01220F331FAC
:10196000260F371F280F391F2817390741F4EFBFFB
:101970008FE594E00197F1F700C000000895DC01C5
:101980006D91CD0178E05BB9000000C067FF4BB9F5
:10199000660F000000C000C000C04BB900C07A95BF
:1019A00091F7E2CFAF92BF92CF92DF92EF92FF9288
:1019B0000F931F93CF93DF937C015B01C42FD22F32
:1019C000FC0182818823F9F04093C1010E946F1BC2
:1019D0009093C0018093BF0180E28C0F883008F0A3
:1019E00061C0C77081E001C0880FCA95EAF7DF9136
:1019F000CF911F910F91FF90EF90DF90CF90BF900C
:101A0000AF900C94D2101091C101141340C080917A
:101A1000BF019091C0010E947B1B6C01B701C50101
:101A20000E94B515C816D90690F5C0E2CD0F1D1756
:101A3000B9F080E2810F883040F4177081E001C076
:101A4000880F1A95EAF70E94D910C83048F481E04F
:101A50009D2F977001C0880F9A95EAF70E94D210C7
:101A6000802F0E94BF10C830E8F4D77081E001C019
:101A7000880FDA95EAF7DF91CF911F910F91FF90D0
:101A8000EF90DF90CF90BF90AF900C94D91080E290
:101A90008C0F883038F4C77081E001C0880FCA9578
:101AA000EAF7E9CFDF91CF911F910F91FF90EF906F
:101AB000DF90CF90BF90AF9008950F939C01CB0122
:101AC000233F4CE5340759F1A8F4283DFCE53F07D6
:101AD00001F1293D4CE53407D1F1273D3C4591F416
:101AE00006E221EE41EE67ED7CE50E94D20C80E03B
:101AF0000F910895253FFCE53F07E9F0B0F0263F40
:101B00003C45F9F0FC018281882339F11092C10132
:101B1000EFCF07E225EE45EE68ED7CE5E6CF06E285
:101B200021EE40EE63EF7CE5E0CF07E225EE44EEE8
:101B300064EF7CE5DACF06E221EE42EE65EF7CE56C
:101B4000D4CF07E225EE46EE66EF7CE5CECF08E285
:101B500021E045EE69ED7CE5C8CF81E0C9CFCF93A8
:101B6000DF93EC01FB018281882309F419C1C230A3
:101B7000FCE5DF07C0F1C6319CE5D90730F09E01D6
:101B80002A5F3C452930310570F50E9483199093F6
:101B9000700380936F03C031ECE5DE0709F4CFC01A
:101BA00008F05BC0C8308CE5D80709F4B6C088F5EA
:101BB000C430ECE5DE0709F4A8C0C0F4C2308CE5FF
:101BC000D80709F49CC080916F038260C330DC4564
:101BD00009F498C080916F03909170030E9491194D
:101BE0000E943F1380E0DF91CF91089580916F03B1
:101BF0008061C630ECE5DE0709F484C080916F0394
:101C00008860C730DC4508F47DC080916F03806236
:101C100079C0CC308CE5D80709F489C070F4809184
:101C20006F038C60CA30ECE5DE0709F46BC008F482
:101C300078C080916F038E7F65C0CE308CE5D80769
:101C400009F479C080916F038B7FCF30DC4508F4B5
:101C500059C080916F038F7E55C0CB3FECE5DE0706
:101C600009F457C030F5C3318CE5D80709F46FC0CB
:101C700078F4C131ECE5DE0709F465C0C231DC451A
:101C800009F0A8CF0E943F1380916F038F773AC06D
:101C9000C5318CE5D80709F462C008F476C080919C
:101CA00070038160CA3FDC4509F094CF80937003D4
:101CB00091CFCF3FFCE5DF0709F44DC088F4809158
:101CC00070038D7FCD3F9CE5D90781F38091700330
:101CD0008E7FCE3FDC4550F3809170038360E6CF6A
:101CE000C130FDE5DF0709F459C008F444C080E0C5
:101CF000C230DD4509F06ECF0E940F1A6BCF809184
:101D00006F03816080936F0365CF80916F03846060
:101D1000F9CF809170038260C9CF80916F03806496
:101D2000F1CF0E943F1380916F038068EBCF8091C9
:101D30006F038D7FE7CF80916F03877FE3CF809123
:101D40006F038F7DDFCF80916F038F7BDBCF80911F
:101D50006F03837FD7CF809170038C7FA7CF809153
:101D60006F0382FB992790F921E0922790FB82F97B
:101D700090FB83F9C7CF80917003982F9095917055
:101D80008E7F892B90FB81F991CF0E943F13909118
:101D90006F03892F97FB87F98058B4CF81E0ACCFD0
:101DA00081E021CFCF93DF93EB0186319C4511F584
:101DB0000E94C1189A81992399F08A7A91E009F4D6
:101DC00090E09093C201811109C089E20E949C18A1
:101DD0000E940D1980E0DF91CF91089585E3F6CF41
:101DE0008091C201811104C089E20E94A318F0CF42
:101DF00085E3FBCF81E0EFCF9093C8018093C701CB
:101E00000895E091C701F091C801309721F0019049
:101E1000F081E02D099480E00895E091C701F091F0
:101E2000C801309799F020911D01222359F020918B
:101E30006F0327FF07C0DC012C9111962C9311979B
:101E400025E02C930280F381E02D099408952091E0
:101E5000C5013091C6012817390771F09093C6016A
:101E60008093C501E091C701F091C801309721F03E
:101E70000680F781E02D099408952091C3013091E7
:101E8000C4012817390771F09093C4018093C301EE
:101E9000E091C701F091C801309721F00084F185ED
:101EA000E02D0994089585B7806885BF85B780685F
:101EB00085BF0895089508950C945A0F08950C94C1
:101EC0005E0F0E94530F0E945B0F0C945C0F81E029
:101ED00008950C94670F0E94661B0E94F9050E94EA
:101EE000D21B0E94720B0C945F0F9F92AF92BF9215
:101EF000CF92DF92EF92FF920F931F93CF93DF93D6
:101F0000CDB7DEB72A970FB6F894DEBF0FBECDBFB0
:101F10000E9461060E94690F882309F470C05AEC80
:101F2000A52E51E0B52E10E000E0902E802F0E94EB
:101F3000EB056C01F501E190F1905F01E816F906FF
:101F400009F457C080916C0281FD0E94F40597014D
:101F50002C253D2580E0EE24E394F12CA9014E21AF
:101F60005F21452B09F43FC08E839F82CE20DF2066
:101F700081E0CD2809F480E088870E946F1B816092
:101F8000782F9A8789874E815F8168858A850E942C
:101F90002210000F111FF801E653FE4F808191813E
:101FA000E826F926F182E0820E94B00B0E94010F20
:101FB0009091C9018917A1F10E94010F8093C90175
:101FC0002A960FB6F894DEBF0FBECDBFDF91CF913A
:101FD0001F910F91FF90EF90DF90CF90BF90AF9047
:101FE0009F900C9485038F5FEE0CFF1C8F3009F0DF
:101FF000B5CF0F5F1F4F0530110509F096CF8FEF5A
:1020000089838A831B820E946F1B8160782F9D8346
:102010008C8349815A816B818D810E942210C4CFAB
:102020002A960FB6F894DEBF0FBECDBFDF91CF91D9
:102030001F910F91FF90EF90DF90CF90BF90AF90E6
:102040009F900895CF93DF93CDB7DEB72B970FB650
:10205000F894DEBF0FBECDBF4F83588769877A875C
:102060008B871E821D8285E0FE013796DE01119668
:1020700001900D928A95E1F749815A816B817C81AB
:102080008D819E812B960FB6F894DEBF0FBECDBF1B
:10209000DF91CF910C94B815FC01808191810C9453
:1020A0006E18CF93C82F882309F43FC08CEF8C0F94
:1020B000813AA0F46C2F80911101909112010E943D
:1020C000281A882329F08C2F0E94A3180E940D192A
:1020D0008C2F0E949C18CF910C940D1980E28C0FCC
:1020E000883048F4C77081E001C0880FCA95EAF7CC
:1020F0000E94C418F0CFEBE5EC0FE33040F4F0E0C1
:10210000E255FE4F808190E0CF910C94270FC85A82
:10211000C73158F4EC2FF0E0EE0FFF1FE058FE4FF0
:1021200080819181CF910C943D0FCF9108958823A8
:1021300029F19CEF980F913A20F40E94A3180C9477
:102140000D1990E2980F983050F4877091E001C01B
:10215000990F8A95EAF7892F0E94CA18F0CF9BE55C
:10216000980F933020F490E080E00C94270F885A69
:10217000873120F490E080E00C943D0F0895CF93D8
:10218000C82F0E945110C93349F42FEF87EE93E016
:10219000215080409040E1F700C000008C2FCF918B
:1021A0000C949710882321F00E94C4180C940D19E8
:1021B0000895882321F00E94CA180C940D190895DF
:1021C000BF92CF92DF92EF92FF920F931F93CF9324
:1021D000DF936C01D62FC72FFC01058102950F708C
:1021E000128111110E94E1180E94BA18E82E88236A
:1021F00091F01123D1F08C2F807F803421F080E288
:102200008D0F883090F082E00E9458190E94BA1811
:1022100091E0E82EE926BC2EB2949FE0B922EB2D86
:10222000F0E0E558FC4D0C94D922E12CF4CF0C2FB2
:102230000F70C07F11F00295007F1123A9F00023D9
:1022400059F080E28D0F883010F0D11109C0802F35
:102250000E94C4180E940D198D2F0E94511014C0A5
:10226000802F0E94D418F6CF8D2F0E949710002344
:1022700059F080E28D0F883010F0D1112CC0802FE2
:102280000E94CA180E940D192B2D2850330B2430A0
:10229000310520F40E94010F0E948503EE2009F40D
:1022A00093C10E94B61880FD8FC1F60112820E9470
:1022B000B0180E943C17C6010E9405130E94B01876
:1022C000DF91CF911F910F91FF90EF90DF90CF9012
:1022D000BF900C945D17802F0E94DA18D3CFFC2F8B
:1022E000FF70FF2EC07FC03219F0F29480EFF82209
:1022F000DD2369F0D13049F1112391F1002351F12F
:10230000F601858180FFA8CF8F70858323C01123BC
:1023100081F0011106C00E94F4188F290E94D2108A
:10232000B3CF0130C1F70E94F4188F290E94FA1828
:10233000ABCF011106C00E9403198F2D0E94D91046
:10234000A3CF013009F4A0CFF6CF112329F0063036
:1023500008F09ACF8F2DE2CF053008F095CFEDCF62
:10236000002359F3D93349F4FFEF27EE33E0F1505E
:1023700020403040E1F700C000008D2F0E949710F0
:1023800083CF8C2F86958695837069F0813009F014
:102390007BCF8D2F9C2F9370111102C090E080E0B5
:1023A0000E943D0F71CF8D2F9C2F9370111102C091
:1023B00090E080E00E94270F67CF8C2F837009F098
:1023C00041C0111161CF4D2F429546954770440F82
:1023D000440F0D2F0F7010E030E020E0042E04C0F9
:1023E000000F111F221F331F0A94D2F760E070E024
:1023F000CB01D4FF0FC06FE070E080E090E004C03C
:10240000660F771F881F991F4A95D2F760957095C0
:1024100080959095C695C695C370602B712B822BC5
:10242000932BC23049F058F4C13019F00E94EE16D7
:102430002BCF0E94DC1628CF0E94001725CF0E94C8
:10244000DA1622CF8695112311F08C2F8170882304
:1024500009F41ACF4D2F429546954770440F440F0B
:102460000D2F0F7010E030E020E0042E04C0000FAC
:10247000111F221F331F0A94D2F760E070E0CB01D6
:10248000D4FF0FC06FE070E080E090E004C0660F02
:10249000771F881F991F4A95D2F760957095809590
:1024A0009095C695C695C370602B712B822B932B8C
:1024B000C23049F058F4C13019F00E94B317E4CE8D
:1024C0000E94A117E1CE0E94C517DECE0E9416170A
:1024D000DBCECF70112329F08C2F0E943C178D2F5B
:1024E0001DCF8D2F0E94D9108C2F0E945D17CCCE4E
:1024F000D23F89F160F4D03FC9F0D13F29F11123D7
:1025000009F442C00111A8CE8C2F8F7121C0D33F96
:1025100039F1D43FA1F7112369F1CF718C2F0E94BB
:102520003C1763E08C2F0E944319AECE112341F07B
:10253000053008F0A9CE8C2F8F710E948017A4CE91
:10254000063008F0A1CEF7CF8C2F8F71112369F2DE
:102550000E943C1799CE8C2F8F711123C9F3C5CFE0
:10256000112329F08C2F8F710E9427178DCE0E9486
:1025700022178ACE81E00E945819023008F484CED6
:1025800082E00E94581980CE002359F0D93309F017
:10259000F4CE8FEF97EEE3E081509040E040E1F71A
:1025A000EACE8C2F8F71A1CF4C2F4F706D2FC601AB
:1025B0000E94DF030E94521667CE4C2F4F706D2F82
:1025C000C6010E94E20360CEDF91CF911F910F916F
:1025D000FF90EF90DF90CF90BF9008950F931F93DF
:1025E000CF93DF93EC01688179818A810E9478180A
:1025F0008C010E94D7170E94D916B801CE01DF9135
:10260000CF911F910F910C94E010CF93DF93EC01C9
:102610008B819C81892B29F08881998189238F3F27
:1026200059F4DF91CF910895CE010E94EE12CE01B0
:10263000DF91CF910C946903CE010E949D0381111B
:10264000F3CF0E94BA18882361F38A81882349F363
:1026500082E0DF91CF910C9458190E94E1180E94FA
:10266000F1180E940D1990E080E00E94270F90E081
:1026700080E00C943D0F0E94AA180C942D130E9428
:10268000D1180C943B13E92FE295EF70E250EE3035
:1026900070F4F0E0E557FC4D0C94D922803F19F01E
:1026A00020F4883E20F481E00895843FE1F380E047
:1026B0000895883EC0F3813FD1F7F5CF93FB88277B
:1026C00080F908950E946E180C944313CF93DF9302
:1026D00000D000D00F92CDB7DEB70F900F900F90C3
:1026E0000F900F90DF91CF910895CF93DF9300D09B
:1026F00000D000D0CDB7DEB726960FB6F894DEBF77
:102700000FBECDBFDF91CF9108951F93CF93DF937D
:10271000C091D50116E08091D6018C1304C0DF91E1
:10272000CF911F910895D0E01C9FF0011D9FF00DE7
:102730001124E952FE4F408151816281738184816D
:1027400095810E9475132196C770E5CF40910702CD
:10275000509108026091090270910A0280910B0267
:1027600090910C020C9475131F93CF93DF9380917B
:102770000C02807FA9F480910902882389F080915E
:10278000D501C091D6016091070270910802A09115
:102790000A02B0910B02D62FD72316E0C81304C04B
:1027A000DF91CF911F91089590E0109711F0DF3FD6
:1027B00019F401968770F2CF189F9001199F300D80
:1027C0001124F901E952FE4F41814713F2CF4081B4
:1027D0004613EFCF42814111ECCF438154814A1B14
:1027E0005B0B483C510528F780910C028F7080618B
:1027F00080930C02F901E452FE4F80818F7080615A
:10280000808387E092E00E940513DF91CF911F91B2
:102810000C948513AF92BF92CF92DF92EF92FF920A
:102820000F931F93CF93DF93CDB7DEB761970FB6AA
:10283000F894DEBF0FBECDBF8C0185E0F801DE014C
:102840001D9601900D928A95E1F7F8014081518122
:10285000E28087E0C82E82E0D82E60910A02709153
:102860000B026115710509F461C190910702209175
:102870000802892F82238F3F09F458C1A380B480B6
:10288000F0900902F501E61BF70BFF2009F4FCC0EC
:1028900080910C02382F307FE83CF10508F0B2C07F
:1028A000311179C0FE2C251323C0941321C0E110EF
:1028B0001FC08F70806180930C020E94A613C60116
:1028C0000E94051380910C02F80185838F2D61967B
:1028D0000FB6F894DEBF0FBECDBFDF91CF911F9131
:1028E0000F91FF90EF90DF90CF90BF90AF90089541
:1028F000AB2829F0842F85238F3F09F033C180E076
:10290000F82FF170DF2E80FF3CC08091D50120911F
:10291000D60136E0821315C04D875E878D859E8572
:102920000E946E18292F22952F702230F0F024304B
:1029300018F59F70F1F0F8019581907FD1F4D12CBA
:102940001EC090E0389FF001399FF00D1124E9522C
:10295000FE4F6181651306C06081641303C062810C
:102960006E110FC001968770D5CF9F7011F088232C
:1029700031F3805E883018F3C8010E940513FD2CE6
:10298000A5CFEE2009F4A2CF80910C028160809344
:102990000C02F12C9BCF251306C0941304C0F80140
:1029A000EE2009F48DC04D875E878D859E850E943F
:1029B0006213882319F1EE2009F180910C02803214
:1029C00070F0209107023091080238872F83198612
:1029D000BB86AA868C87CE0107960E94051386E0E7
:1029E000F801A7E0B2E001900D928A95E1F70E940C
:1029F000B4130E94A613FF24F39468CFC8010E9469
:102A00000513F9CF311113C07A2DB98AA88A6E2D1A
:102A100089890E94661387E092E00E94051386E090
:102A2000F60111928A95E9F70E94A613B2CF2513F9
:102A30000FC094130DC0E1100BC0F8018583C801CD
:102A40000E94051386E0F60111928A95E9F73ECFC0
:102A50004D875E878D859E850E946213882371F263
:102A6000EE2061F280910C02803208F4B8CF209100
:102A70000702309108023A8329831B82BD82AC820F
:102A80008E83CE010196A9CFE83CF10508F041C044
:102A9000FE2CEE2009F4B2CF25132AC0941328C0CF
:102AA00080910C0280FD1BC0982F907FC1F0F8012F
:102AB0008583903F31F0982F907F905F8F70892BA6
:102AC0008583C8010E94051386E0F801A7E0B2E003
:102AD00001900D928A95E1F70E94A613F7CE86E049
:102AE000F801A7E0B2E001900D928A95E1F7EECEF1
:102AF0004D875E878D859E850E94621381116FCF01
:102B000080910C02816080930C02C8010E94051321
:102B1000DDCE7A2DB98AA88A6E2D89890E94661326
:102B200086E0F60111928A95E9F7D6CFEE2009F4F6
:102B300065CF4D875E878D859E850E946213F82E36
:102B4000882309F45BCF86E0F801A7E0B2E00190AA
:102B50000D928A95E1F787E092E00E944C100E9466
:102B6000B413BACF81E08E25CBCE88EC90E00895E7
:102B70001F93CF93DF93CDB7DEB72C970FB6F894A2
:102B8000DEBF0FBECDBF4F83588769877A878B879B
:102B90009C87CE0107960E940A14882369F08A85D3
:102BA0009B85892B39F04F815885842F85238F3F52
:102BB00009F071C016E05FC086E0FE013796DE01C5
:102BC000119601900D928A95E1F78A859B85892B54
:102BD00089F38F81988589238F3F61F32091D601F6
:102BE00030E0C9010196877099274091D5014817B7
:102BF000190671F40E943F131092D6011092D5016C
:102C000086E0E7E0F2E0DF011D928A95E9F7D2CF96
:102C100096E0929FD001939FB00D1124A952BE4F10
:102C2000FE01319601900D929A95E1F78093D601BD
:102C30000E948513BFCF819FC001112489529E4FEE
:102C40000E940A148823E9F0E091D5011E9FF0014B
:102C50001124E952FE4F4081518162817381848148
:102C600095810E9475138091D50190E0019687703F
:102C700099278093D5018091D5019091D601891330
:102C8000DACF2C960FB6F894DEBF0FBECDBFDF9122
:102C9000CF911F91089569857A858B859C850E94C7
:102CA000751388CFEF92FF920F931F93CF93DF930B
:102CB0008C01892B81F0F12CEE24E394E80121961C
:102CC000F8018491843770F4843008F05FC081305B
:102CD000B1F08230A1F1DF91CF911F910F91FF9060
:102CE000EF900895853709F44CC008F43DC09CE787
:102CF000980F903780F78F770E94971049C00E5F2A
:102D00001F4FFE01849190E2980F983060F4877015
:102D1000FE2D01C0FF0F8A95EAF78F2F0E94E4185D
:102D20000E940D1902C00E9451108F2D815030F267
:102D3000EFE9FFE03197F1F700C00000F7CF0E5F39
:102D40001F4FFE01849190E2980F983050F48770E5
:102D5000FE2D01C0FF0F8A95EAF78F2F0E94EA1817
:102D6000DFCF0E949710E1CF0E5F1F4FFE01C4918D
:102D7000C150D8F28FE99FE00197F1F700C0000041
:102D8000F7CF0E5F1F4FFE01F490CFCF0E9451107E
:102D90008E01CBCF08950C94CA160E94CB16609377
:102DA00043027093440280934502909346020C9430
:102DB0002D1308950C94CD160F931F930091430289
:102DC000109144022091450230914602602B712BF4
:102DD000822B932B1F910F910C94CD160F931F9361
:102DE0000091430210914402209145023091460225
:102DF00060237123822393231F910F910C94CD168E
:102E00000F931F93009143021091440220914502B9
:102E10003091460260277127822793271F910F91D7
:102E20000C94CD160C94CA160C9412170E94141709
:102E300060933F027093400280934102909342025C
:102E40000C942D1360E070E0CB010C9416170F93D7
:102E50001F9341E050E060E070E08A019B0104C0F4
:102E6000000F111F221F331F8A95D2F7C901B80125
:102E70001F910F910C9416170F931F9341E050E090
:102E800060E070E004C0440F551F661F771F8A95ED
:102E9000D2F780913F0290914002A0914102B091FF
:102EA00042028A019B01082B192B2A2B3B2BC901BB
:102EB000B8011F910F910C9416170F931F9341E0C7
:102EC00050E060E070E004C0440F551F661F771F9C
:102ED0008A95D2F7CB01BA0160957095809590954F
:102EE00000913F0210914002209141023091420234
:102EF00060237123822393231F910F910C94161743
:102F00000F931F9341E050E060E070E004C0440F75
:102F1000551F661F771F8A95D2F780913F029091C7
:102F20004002A0914102B09142028A019B01082710
:102F300019272A273B27C901B8011F910F910C942B
:102F400016170F931F9300913F021091400220919A
:102F5000410230914202602B712B822B932B1F91E7
:102F60000F910C9416170F931F9300913F0210912D
:102F7000400220914102309142026023712382235A
:102F800093231F910F910C9416170F931F93009189
:102F90003F0210914002209141023091420260278D
:102FA0007127822793271F910F910C94161708956C
:102FB0002FE0929F800D1124982F977041E001C05F
:102FC000440F9A95EAF786958695869595E0899FB0
:102FD000F0011124E35FFD4F90E080E070E051913B
:102FE000DF0111979B01082E02C0369527950A94A0
:102FF000E2F7217021952527242325272C9301967C
:103000008530910561F708952FE0929F800D11247E
:10301000982F977086958695869525E0829FF0017A
:103020001124E35FFD4F50E040E080E0219130E06B
:10303000092E02C0369527950A94E2F721703327AE
:10304000042E01C0220F0A94EAF7822B4F5F5F4FD4
:103050004530510559F70895BF92CF92DF92EF9214
:10306000FF920F931F93CF93DF938C01C0903F0289
:10307000D0904002E0904102F090420280914302E1
:1030800090914402A0914502B0914602C82AD92AE3
:10309000EA2AFB2ACFE1D0E0BC2ED701C6010C2ED4
:1030A00004C0B695A795979587950A94D2F780FDA9
:1030B0000EC0219788F7B12C8B2DDF91CF911F91F6
:1030C0000F91FF90EF90DF90CF90BF900895B801DF
:1030D0008C2F0E94FF03019761F3EECFCF93DF9314
:1030E000EC010E942C18BE01DF91CF910C94FF03DC
:1030F0001F93CF93DF93EB019091D401992331F08B
:10310000CB01DF91CF911F910C946E18882379F039
:10311000CB010E942C18182F682FCE010E94D817BF
:10312000BE01812FDF91CF911F910C94FF03CB0142
:103130000E940418182FF4CF682F809111019091EC
:1031400012010C94A81A682F80911101909112011C
:103150000C94B31A80911101909112010C94BE1A33
:1031600080914702859585958595089580914702C0
:103170008770089590914702977081E009F480E08C
:10318000089580916B02089590916B02892B809332
:103190006B020895809590916B02982390936B0237
:1031A000089510926B02089590916A02892B809382
:1031B0006A020895809590916A02982390936A021A
:1031C000089510926A02089590916902892B809364
:1031D00069020895809590916902982390936902FD
:1031E0000895109269020895809148020895089503
:1031F0000C94F71890914802981721F08093480298
:103200000C94F818089580914802882329F01092B0
:10321000480280E00C94F8180895E0911101F091B3
:10322000120180916B028083E0911101F0911201F3
:10323000808190916A02892B8083E0911101F09145
:103240001201808190916902892B808390914802BC
:10325000992381F0E0911101F09112018081892B75
:10326000808380911101909112010E94141A8111A2
:103270000E94031980911101909112010C940D0F7D
:1032800008950C94401998E0899F90011124622BB5
:10329000609347020E943C1780914702859585956F
:1032A00085950C9441191092470280E00C944119C5
:1032B000909147028095892380934702282F277099
:1032C00071F4282F082E000C330B9217130639F0D7
:1032D0008595859585950E945D170C9453190895E1
:1032E00090E080E00E942B2321E08C3E9E4F09F06D
:1032F00020E0822F089582E090E00C941D2383E06B
:1033000090E00C941D23CF9384E090E00E941D2355
:10331000C82F81E290E00E941D23982F8C2FCF911F
:103320000895CF93C92F682F84E090E00E94312345
:103330006C2F81E290E0CF910C943123AB01BC0162
:103340008FE090E00C944323AB01BC0183E190E05B
:103350000C94432360E070E0CB010C94A41960E06E
:1033600070E0CB010E949E190C94AA196CEE7EEFBE
:1033700090E080E00E944F2360E082E090E00E94B5
:10338000312360E083E090E00E94312310924302F9
:1033900010924402109245021092460260E084E0CE
:1033A00090E00E94312360E081E290E00E943123AE
:1033B00060E085E090E00E94312360E086E090E0EC
:1033C0000E9431236FEF87E090E00E94312340E0BC
:1033D00050E0BA0188E090E00E94432360E08DE075
:1033E00090E00E94312340E050E0BA0188E190E093
:1033F0000E94432360E087E190E00E94312340E097
:1034000050E0BA018CE190E00E94432360E080E24A
:1034100090E00E9431230C94AF190C94B619682FD8
:103420008EE090E00C943123FC01329680911D01D6
:10343000882321F080916F039EE187FF96E080E072
:10344000915008F4089521912223D1F38F5FF8CF92
:10345000662301F120911D012223F1F020916F03D9
:1034600027FF1AC0462F4695469546954E3190F453
:10347000677021E030E002C0220F331F6A95E2F747
:10348000840F911DFC01828190E02823392381E083
:10349000232B69F480E00895FC013296089621916F
:1034A000261721F0E817F907D1F7F4CF81E0089546
:1034B0009C01FC0132969FEF80E04191461751F04C
:1034C0009F3F19F4411101C0982F8F5F8630A9F7F3
:1034D0009F3F09F40895290F311D97FD3A95F90191
:1034E00062830895FC01329608962191261303C049
:1034F000DF0111971C92E817F907B9F70895E62F35
:10350000E695E695E695EE3168F4E80FF92FF11DA2
:10351000677021E030E001C0220F6A95EAF78281EE
:10352000822B82830895E62FE695E695E695EE31A7
:1035300070F4E80FF92FF11D677021E030E001C051
:10354000220F6A95EAF72095828128232283089525
:1035500020911D01222329F020916F0327FD0C9457
:103560007F1A0C94581A20911D01222329F02091D2
:103570006F0327FD0C94931A0C94721AFC01329677
:1035800080911D01882351F080916F0387FF06C051
:103590008EE1DF011D928A95E9F7089586E0F9CF63
:1035A000089508950C94D11A0E94D21A809175033F
:1035B000843009F439C010926D0288E190E020E473
:1035C0000FB6F894A895809360000FBE209360001A
:1035D00080E00E9485030E94AD0B80916E028111F4
:1035E0000AC081E080936E028091A6028170809370
:1035F0006F020E94E00A0E94D21A83B7817F846022
:1036000083BF83B7816083BF7894889583B78E7FAB
:1036100083BF0FB6F894A89580916000886180936D
:103620006000109260000FBE08950895CF930E942D
:10363000D01A0E9461060E94151BC0E08C2F0E94C8
:10364000EB05892B31F4CF5FC530C1F780E0CF9116
:10365000089581E0FCCF08950C942B1B0E943F132A
:103660000E94010F0E94850310926E0280916F02EA
:1036700081110E94A50B0E94F20A0C942C1B1F9230
:103680001FB61F9211248F939F93AF93BF93809186
:103690006D02811113C080916B0390916C03A09116
:1036A0006D03B0916E034196A11DB11D80936B0314
:1036B00090936C03A0936D03B0936E03BF91AF9191
:1036C0009F918F911F901FBE1F90189582E084BD1F
:1036D00093E095BD9AEF97BD80936E0008952FB744
:1036E000F89480916B0390916C03A0916D03B0915D
:1036F0006E032FBF08959C014FB7F89480916B0320
:1037000090916C03A0916D03B0916E034FBF821B2B
:10371000930B089578941F921FB61F9211248F93D4
:103720009F93AF93BF9380916B0390916C03A09193
:103730006D03B0916E030196A11DB11D80936B03C3
:1037400090936C03A0936D03B0936E03BF91AF9100
:103750009F918F911F901FBE1F90189581E08093BD
:10376000E00080E28093D8001092C9008FE19EE4CF
:103770000197F1F700C0000087E090EBDC01809337
:103780007E0390937F03A0938003B093810388E12D
:103790009CE00FB6F894A895809360000FBE9093BC
:1037A0006000FFCF0E947019811102C00E940D1AA3
:1037B0000E947B1980936C020E948319909370037E
:1037C00080936F030E947F19682F70E090E080E083
:1037D0000E94DA1660913F0270914002809141028E
:1037E000909142020C9414178091900208950895CC
:1037F000CF93DF9300D00F92CDB7DEB790917503D2
:10380000943019F589837B836A8382E08093E90091
:103810008FEF9091E800815095FD06C095ED9A9547
:10382000F1F700008111F5CF8091E80085FF0DC010
:1038300050E040E063E070E0CE0101960E94FE1D82
:103840008091E8008E778093E8000F900F900F90A2
:10385000DF91CF910895BC0184E00C94F81BBC016A
:1038600083E00C94F81BCF93DF93EC0180911D0152
:103870008823B1F180916F0387FF32C060E282E05C
:103880008093E9008FEF9091E800815095FD06C08C
:1038900095ED9A95F1F700008111F5CF8091E80040
:1038A00085FF1BC080911D0170E050E040E0811158
:1038B00004C050E040E068E070E0CE010E94FE1DD0
:1038C0008091E8008E778093E80080E2FE01A0E717
:1038D000B2E001900D928A95E1F7DF91CF910895C2
:1038E00068E081E0CDCF80917403811109C00E940E
:1038F0008E1F0E94EB1F8091E20084608093E200A3
:103900000895109274030895089508950C942E1B41
:1039100042E061EC81E00E940A1F42E261EC82E039
:103920000C940A1F80917703833009F45FC030F450
:103930008130C1F1823009F49BC008958A3009F4C6
:1039400087C08B3009F46DC0893009F04EC080917A
:103950007603813209F049C080917A0390917B030C
:10396000029708F042C08091E800877F8093E800CA
:103970008091E80082FF35C09091F3008091F200C1
:10398000029729F48091F1008B7F813021F480919E
:10399000F100809390028091E8008B778093E8009B
:1039A0000C943E1F80917603813AF9F48091E800EF
:1039B000877F8093E80080917A0390917B03892B25
:1039C00061F460E280E792E070E00E944D1E809119
:1039D000E8008B778093E800089560E090E080E055
:1039E000F3CF809175038111C3CF08958091760341
:1039F000813AD9F780917A0390917B03892BA9F7BB
:103A00008091E800877F8093E8008091E80080FF44
:103A1000FCCF80911D018093F1008091E8008E77AA
:103A2000BDCF80917603813201F780917A03909126
:103A30007B03892BD1F68091E800877F8093E80093
:103A40000E943E1F8091780380931D010C943F13C8
:103A500080917603813249F68091E800877F8093D8
:103A6000E8000E943E1F809179038093910208959F
:103A700080917603813A09F0B8CF8091E800877F82
:103A80008093E8008091E80080FFFCCF8091910254
:103A9000C2CF84B7877F84BF0FB6F894A895809172
:103AA0006000886180936000109260000FBE80E823
:103AB00090E00FB6F89480936100909361000FBE80
:103AC0000E94610F0E948E1F0E94EB1F8091E200F6
:103AD00084608093E20078940E9474220E946B0FAD
:103AE00083E191E00E94FC0E80917503853019F00E
:103AF0000E94750FF9CF0E94D41A80917303882316
:103B000099F30E94161B882379F30E94E81DECCFDD
:103B10000C948A1D292F33272330310519F168F4BD
:103B20002130310509F44AC02230310509F44BC077
:103B300090E080E030E020E028C02132310579F1CA
:103B400022323105A9F780E490E025E735E06115E0
:103B50007105D9F08DE690E028E035E0613071051F
:103B6000A1F0E6CF99278130910599F0009741F0B7
:103B70008230910589F00397D9F6EDE7F4E002C0B1
:103B8000E7EBF4E0849190E09F01FA013183208318
:103B90000895E3EAF4E0F6CFE3E8F4E0F3CF89E058
:103BA00090E02DEC34E06115710579F389E090E047
:103BB00026EE34E06130710541F3BACF82E190E046
:103BC00026EF34E0E2CF8BE390E02BEB34E0DDCF67
:103BD00080E189BD82E189BD09B400FEFDCF8091FD
:103BE000D8008F7D8093D8008091E0008260809320
:103BF000E0008091E00081FDFCCF0895AF92BF927C
:103C0000CF92DF92FF920F931F93CF93DF936C01BC
:103C1000EB018A010E945D1FF82E811123C001155E
:103C2000110539F0F80180819181C81BD90BC80EAC
:103C3000D91EB12CA12C2097A9F08091E80085FD18
:103C400022C08091E8008E778093E800011511056D
:103C5000A1F0F80180819181A80EB91EB182A082E5
:103C600085E0F82E8F2DDF91CF911F910F91FF905E
:103C7000DF90CF90BF90AF9008950E945D1F882382
:103C8000D1F2F82EEFCFF60181916F018093F10010
:103C90002197FFEFAF1ABF0ACECFFC0180917C03C2
:103CA00090917D0386179707A0F06115710529F49F
:103CB0009091E8009E779093E80090E0611571057F
:103CC00051F4911108C08091E80082FF34C080E077
:103CD0000895BC01F2CF809175038823C1F185302E
:103CE000C1F18091E80083FD30C08091E80082FD41
:103CF000EACF8091E80080FFE1CF8091F30020912E
:103D0000F200382F6115710519F02830310558F08F
:103D100091E02830310509F090E02091E8002E77FD
:103D20002093E800CBCF81918093F100615071091D
:103D30002F5F3F4FE7CF80917503882341F0853097
:103D400041F08091E80083FFBECF81E0089582E0DA
:103D5000089583E00895FC0180917C0390917D0398
:103D600086179707A0F06115710529F48091E80086
:103D70008E778093E80090E06115710551F4911100
:103D800008C08091E80082FF35C080E00895BC0142
:103D9000F2CF809175038823C9F18530C9F18091F4
:103DA000E80083FD31C08091E80082FDEACF809178
:103DB000E80080FFE1CF8091F3002091F200382FDE
:103DC0006115710519F02830310558F091E028305F
:103DD000310509F090E08091E8008E778093E8004B
:103DE000CBCF84918093F1003196615071092F5FA0
:103DF0003F4FE6CF80917503882341F0853041F035
:103E00008091E80083FFBDCF81E0089582E00895AE
:103E100083E00895982F973028F08F708093E90001
:103E200081E008959093E900242F762F50E09817B1
:103E300031F07091EC002091ED005091F00021FDE7
:103E400002C09F5FE8CF3091EB003E7F3093EB00E4
:103E50003091ED003D7F3093ED003091EB0031600B
:103E60003093EB007093EC002093ED005093F00042
:103E70002091EE0027FDE5CF80E008958091760344
:103E800087FF13C08091E80082FF06C08091E800A0
:103E90008B778093E80004C0809175038111F2CF85
:103EA0000895809175038823D9F38091E80080FFFD
:103EB000F8CF8091E8008E77ECCF2091E40030912C
:103EC000E50095E6A9012091EC00822F817020FF8A
:103ED00006C08091E80080FF06C080E00895209130
:103EE000E80022FD1AC080917503882389F085308F
:103EF00089F08091EB0085FD0FC02091E4003091A6
:103F0000E50042175307F9F29150E1F684E0089575
:103F100082E0089583E0089581E008950E94FC1FE7
:103F20000E940420E0EEF0E0808181608083E8ED73
:103F3000F0E080818F77808319BCA7EDB0E08C9191
:103F40008E7F8C9380818F7E80831092740308957E
:103F50000F931F93CF93DF930E94FC1F0E940420B6
:103F6000C8EDD0E088818F778883888180688883D6
:103F700088818F7D888319BC10927503109271031C
:103F8000109273031092720300EE10E0F80180812A
:103F90008B7F808388818160888342E060E080E05D
:103FA0000E940A1FE1EEF0E080818E7F8083E2EEC6
:103FB000F0E0808181608083808188608083F80167
:103FC00080818E7F8083888180618883DF91CF911B
:103FD0001F910F910895E8EDF0E080818F7E80833E
:103FE000E7EDF0E080818160808384E082BF81E042
:103FF000809374030C94A81FE8EDF0E080818E7F1D
:1040000080831092E20008951092DA001092E1008D
:1040100008951F920F920FB60F9211242F933F9382
:104020004F935F936F937F938F939F93AF93BF93C0
:10403000EF93FF938091E10082FF0BC08091E2003B
:1040400082FF07C08091E1008B7F8093E1000E9496
:1040500073228091DA0080FF19C08091D80080FF20
:1040600015C08091DA008E7F8093DA008091D900AC
:1040700080FF96C080E189BD82E189BD09B400FE60
:10408000FDCF81E0809375030E94731C8091E10055
:1040900080FF19C08091E20080FF15C08091E2008E
:1040A0008E7F8093E2008091E20080618093E20045
:1040B0008091D80080628093D80019BC85E08093FD
:1040C00075030E94851C8091E10084FF2BC08091C4
:1040D000E20084FF27C080E189BD82E189BD89B506
:1040E000982F917080FFFBCF8091D8008F7D8093B7
:1040F000D8008091E1008F7E8093E1008091E20002
:104100008F7E8093E2008091E20081608093E200E4
:1041100080917103882309F449C084E0809375037A
:104120000E94861C8091E10083FF29C08091E200FB
:1041300083FF25C08091E100877F8093E10082E0CA
:1041400080937503109271038091E1008E7F8093BC
:10415000E1008091E2008E7F8093E2008091E20096
:1041600080618093E20042E060E080E00E940A1FEC
:104170008091F00088608093F0000E94841CFF9181
:10418000EF91BF91AF919F918F917F916F915F91CF
:104190004F913F912F910F900FBE0F901F90189548
:1041A00019BC109275030E94811C70CF8091E300AE
:1041B00087FD93E090937503B3CF1F920F920FB6D4
:1041C0000F9211242F933F934F935F936F937F939D
:1041D0008F939F93AF93BF93CF93DF93EF93FF930F
:1041E000D091E900DF708091EC00C82FC17080FD94
:1041F000C0E81092E9008091F000877F8093F00082
:1042000078940E9421211092E9008091F00088604A
:104210008093F000CD2BCF70C093E900FF91EF9118
:10422000DF91CF91BF91AF919F918F917F916F91CE
:104230005F914F913F912F910F900FBE0F901F9064
:1042400018951F93CF93DF93CDB7DEB7AA970FB61C
:10425000F894DEBF0FBECDBF86E793E02091F1005A
:10426000FC012193CF01F3E08E379F07B9F70E943D
:10427000921C8091E80083FF1EC18091760390918B
:1042800077039A3008F017C1E92FF0E0E756FC4DAC
:104290000C94D922803899F0823809F00CC18091B1
:1042A0007A038F70873008F006C18093E90080910F
:1042B000EB0085FB882780F91092E90006C0809109
:1042C000720390917303911182609091E800977F3F
:1042D0009093E8008093F1001092F1008091E80043
:1042E0008E77E5C0882309F4D3C0823009F0E3C09B
:1042F000809178038111D6C080917A038F702FEF5F
:10430000280F263008F0D7C08093E9002091EB00F9
:1043100020FFC8C0933031F48091EB00806280931D
:10432000EB00C0C09091EB0090619093EB0021E016
:1043300030E001C0220F8A95EAF72093EA0010923C
:10434000EA008091EB008860EACF8111B4C010913F
:1043500078031F778091E3008078812B8093E300BE
:104360008091E800877F8093E8000E943E1F809143
:10437000E80080FFFCCF8091E30080688093E30039
:1043800082E0111183E08093750395C080588230DC
:1043900008F091C080917803909179038C3D23E0DF
:1043A0009207A1F583E08A838AE289834FB7F89464
:1043B000DE01139620E03EE051E2E32FF0E050935F
:1043C0005700E49120FF03C0E295EF703F5FEF706C
:1043D0008E2F90E0EA30C0F0C7968D939D932F5FAB
:1043E000243159F74FBF8091E800877F8093E80020
:1043F0006AE270E0CE0101960E944D1E8091E800B5
:104400008B778093E80057C0C096E7CF60917A031E
:1044100070917B03AE014F5F5F4F0E94881DBC010E
:10442000892B09F448C09091E800977F9093E800A9
:1044300089819A810E94AB1EE1CF8038E1F580919D
:10444000E800877F8093E800809171038093F100FA
:1044500045CF811130C090917803923060F5809102
:10446000E800877F8093E800909371030E943E1FCD
:1044700080917103882311F084E005C08091E300EE
:1044800087FDFACF81E0809375030E94881C13C0DA
:1044900080917803813079F481E0933009F080E0F5
:1044A000809373031092E9008091E800877F8093E6
:1044B000E8000E943E1F8091E80083FF0AC08091BF
:1044C000E800877F8093E8008091EB008062809312
:1044D000EB00AA960FB6F894DEBF0FBECDBFDF91FA
:1044E000CF911F9108950895CF93809175038823EC
:1044F000A1F0C091E900CF709091EC00892F8170FC
:1045000090FD80E8C82B1092E9008091E80083FDBF
:104510000E942121CF70C093E900CF910895AA1B7A
:10452000BB1B51E107C0AA1FBB1FA617B70710F09E
:10453000A61BB70B881F991F5A95A9F780959095D0
:10454000BC01CD01089597FB072E16F4009407D007
:1045500077FD09D00E948F2207FC05D03EF490958C
:1045600081959F4F0895709561957F4F0895A1E2C1
:104570001A2EAA1BBB1BFD010DC0AA1FBB1FEE1FDD
:10458000FF1FA217B307E407F50720F0A21BB30B28
:10459000E40BF50B661F771F881F991F1A9469F7A4
:1045A00060957095809590959B01AC01BD01CF0100
:1045B0000895EE0FFF1F0590F491E02D09940E94DD
:1045C000E722332312F48A1B9B0B0C94F822A29F40
:1045D000B001B39FC001A39F700D811D1124911DD7
:1045E000B29F700D811D1124911D08950E94E72234
:1045F000B7FF0895821B930B08950E94E722A59FA1
:10460000900DB49F900DA49F800D911D11240895CD
:10461000B7FF0C94FD220E94FD22821B930B08958C
:10462000FC014150504030F001900616D1F731970F
:10463000CF010895882799270895F999FECF92BD53
:1046400081BDF89A992780B50895A6E1B0E044E0CD
:1046500050E00C945723A8E1B0E042E050E00C9405
:104660005723262FF999FECF92BD81BDF89A019765
:1046700000B4021639F01FBA20BD0FB6F894FA9AAA
:10468000F99A0FBE08950396272F0E9432230E94A5
:104690003123252F0E943223242F0C94322301969C
:1046A000272F0E9432230C943123DC01CB01FC0123
:1046B000F999FECF06C0F2BDE1BDF89A319600B47B
:1046C0000D9241505040B8F70895F894FFCF540C24
:1046D0005C0C630C680C6D0C720C770C7C0C810C00
:1046E000860C8B0C900C940C560C990C9C0C560C54
:1046F0009F0CA10C560C171117116F116F11C111DE
:10470000441144114411DD11691278127812D41247
:1047100044114411DD124E134E13571357135913FE
:104720005713571357134E134E135E135713571344
:104730005E134A2172215B2272215B22A521C621D0
:064740005B221D2229226C
:1047460001004000404001131415161718191A1BD2
:104756001C4902F41B331CF71B2F1C2B1C01E20007
:10476600E900EA00B500B600B700CD008301CC0031
:104776008A019201940121022302240225022602C3
:1047860027022A02B300B4006F007000818283F70B
:10479600F6F1F531C6943791929034366667F4F0A7
:1047A6003233950001020202020606060606060CD0
:1047B6000C0C0C0C0C1213131313131313131313E7
:1047C600E200E900EA00B500B600B700CD008301BB
:1047D600CC008A01920194012102230224022502BF
:1047E600260227022A02B300B4006F0070008182FD
:0247F60083003E
:00000001FF
